:020000040800F2
:1000000058060020D9010008E719000893190008D4
:10001000E519000881070008D31B00080000000054
:10002000000000000000000000000000EB190008C4
:100030009908000800000000E9190008ED190008FF
:10004000F3010008F3010008F3010008F3010008C0
:10005000F3010008F3010008F3010008F3010008B0
:10006000F3010008F3010008F3010008F3010008A0
:10007000F3010008F3010008F3010008F301000890
:10008000E9070008F3010008F3010008F301000884
:10009000F3010008F3010008F3010008F301000870
:1000A000F3010008F3010008F3010008F301000860
:1000B000951A0008F3010008F3010008F301000895
:1000C000F3010008F3010008F3010008F301000840
:1000D000F3010008F3010008F3010008F301000830
:1000E000F3010008F3010008F3010008F301000820
:1000F000F3010008F3010008F3010008F301000810
:10010000F3010008F3010008F3010008F3010008FF
:10011000F3010008F3010008F3010008F3010008EF
:10012000F3010008F3010008F3010008F3010008DF
:10013000F30100080000000000000000F3010008C7
:10014000F3010008F3010008F3010008F3010008BF
:10015000F3010008F3010008F3010008F3010008AF
:10016000F3010008F3010008F3010008F30100089F
:10017000F3010008F3010008F3010008000000008B
:1001800000000000F3010008000000000000000073
:10019000F30100080000000000000000F301000867
:1001A000000000000000000000000000F301000853
:1001B000F3010008F3010008F3010008F30100084F
:1001C000F3010008DFF80CD000F09CFA004800476B
:1001D000E1250008580600200648804706480047E9
:1001E000FEE7FEE7FEE7FEE7FEE7FEE7FEE7FEE7E7
:1001F000FEE7FEE7791A0008C50100082DE9F05F67
:100200000546002092469B46884606468146402485
:100210001BE0284641464746224600F0F3F9534684
:100220005A46C01A914110D311461846224600F092
:10023000DAF92D1A67EB01084F462246012000210A
:1002400000F0D1F917EB00094E41201EA4F1010482
:10025000DFDC484631462A464346BDE8F09FD2B22D
:1002600001E000F8012B491EFBD270470022F6E79F
:1002700010B513460A4604461946FFF7F0FF20461C
:1002800010BD2DE9FE4F804681EA0300C00F0C46E9
:10029000009021F0004123F00045B8EB0200A94195
:1002A00005D24046214690461C460B46024623F0A6
:1002B0000040104347D0270DC7F30A00C3F30A518B
:1002C0000290401A019040286BDAC3F3130040F407
:1002D000801B0098924620B10023D2EB030A63EB07
:1002E0000B0B01985946C0F14002504600F07BF9D3
:1002F00006460D4650465946019A00F093F910EB18
:1003000008006141002487EA115284EAE7731A4326
:1003100040D0009A62B3019A012A4FEA075215DCD5
:10032000001B61EB02014FF0004202EA0752CDE9E7
:100330000042001C41F5801132462B4600F093F933
:1003400003B0BDE8F08F40462146F9E7001B61EBA2
:100350000201001C41F5801300185B412018A2F532
:10036000001747EB030140EAD570B6196D4111E063
:100370006D084FEA360645EAC0754FEA0752001B82
:1003800061EB0201001C41F5801149084FEA300081
:100390000019514132462B4603B0BDE8F04F00F042
:1003A00053B90098012240000023D0EB020263EB16
:1003B000E073009821464FEAE074B8EB000061EB6F
:1003C0000401E9E783F000435BE781F0004158E76F
:1003D0002DE9FE4F81EA030404F0004421F00041BE
:1003E00000944FF0000B23F0004350EA01045ED06C
:1003F00052EA03045BD0C3F30A54C1F30A552C44F8
:10040000A4F2F3340194A0FB0254C1F3130141F4AC
:100410008011C3F3130343F4801301FB024400FB78
:10042000034E840A970A44EA815447EA8357A4FB9F
:10043000076802958D0A05FB07854FEA932C04FB9C
:100440000C542705029D4FEA065847EA1637B5EBCC
:1004500008056EEB070C870E920E47EA811742EAF9
:100460008312A7FB0201B6EB0B0164EB00042B0D1A
:1004700043EA0C335E1844EB1C50DA465146E7FB66
:100480000201C5F313044FEA0B3343EA14534FEA56
:100490000432019C43EA0603A4F10C040294009C7C
:1004A000CDE900B400F0DFF803B0BDE8F08F002024
:1004B0000146F9E72DE9F04D81EA030404F0004B11
:1004C00021F0004514464FF0000A23F0004150EAA5
:1004D000050220D054EA01021DD0C5F30A57024696
:1004E000C5F31303C1F31300C1F30A5640F480159A
:1004F00043F48013A7EB0608101BD64608F2FD381C
:1005000073EB050002D308F1010801E092185B418A
:10051000B8F1000F03DA00200146BDE8F08D00209D
:100520004FF48011064684460EE0171B73EB050757
:1005300005D3121B63EB050306434CEA010C490883
:100540004FEA300092185B4150EA0107EDD152EAC0
:10055000030012D082EA040083EA0501084305D0B3
:10056000101BAB4106D20122002306E000224FF00F
:10057000004302E06FF0010253101AEB06004CEB4F
:10058000085110EB0A0041EB0B01BDE8F04D00F003
:100590005BB80EB5C10F80EAE0700844CA070021BD
:1005A00040F233438DE80E000A460B4600F05BF83C
:1005B00003B000BDC1F30A5210B5C1F3130140F2FC
:1005C000FF3341F480119A4201DA002010BD40F25D
:1005D00033439A42A2F2334203DC524200F012F853
:1005E00010BD904010BD202A04DB203A00FA02F131
:1005F000002070479140C2F1200320FA03F3194311
:1006000090407047202A04DB203A21FA02F00021B2
:10061000704721FA02F3D040C2F120029140084312
:1006200019467047202A06DBCB17203A41FA02F020
:1006300043EAE07306E041FA02F3D040C2F120023F
:10064000914008431946704710B5141E73F1000419
:1006500008DA401C41F1000192185B411A4301D1B4
:1006600020F0010010BD2DE9F04D92469B4611B1DE
:10067000B1FA81F202E0B0FA80F220329046FFF740
:10068000B2FF04460F4640EA0A0041EA0B01534616
:100690005A46084313D0114653EA010019D0C8F155
:1006A00040025046FFF7AEFF05460E4650465946FB
:1006B0004246FFF798FF084305D0012004E020469A
:1006C0003946BDE8F08D0020054346EAE0762C432C
:1006D00037430A986305E40AA0EB08000022FD0AEC
:1006E00044EA47540A3002D500200146E9E70105F3
:1006F00010196941DDE9084500196941BDE8F04D6F
:10070000A2E70000064C074D06E0E06840F0010358
:1007100094E8070098471034AC42F6D3FFF756FD33
:10072000B8270008D82700080EB540F233410291DF
:100730000021CDE900110A460B46FFF794FF03B0F4
:1007400000BD70B5C1F30A5201F000450024C1F3A9
:10075000130140F2FF3341F480119A4201DA002084
:1007600070BD40F233439A42A2F2334203DC52425C
:10077000FFF748FF00E090402C43F1D0404270BDAD
:10078000FEE710B5846B204600F0ACF80120207124
:1007900010BD10B5846B204600F080F80120207158
:1007A00010BD10B5846B206940F004002061204624
:1007B00000F09AF80120207110BD10B5846B2069FB
:1007C00040F004002061204600F06AF8012020710A
:1007D00010BD10B5806B00F086F810BD10B5806BB1
:1007E00000F05DF810BD0000014800F063B90000A2
:1007F000F801002001681823CAB2103AB2FBF3F2E4
:10080000054B6FF30901032A9B5CC36500D9091DE1
:1008100081650846704700007C26000810B5014637
:1008200000208B698A6A4FF0C07453B1B3F5005F42
:1008300015D072B1012A0CD0022A0AD0032A09D19C
:1008400004E01AB1012A06D0022A03D1C96AC901FB
:1008500000D5012010BDC96AA142FAD010BD002AFE
:10086000F7D0012AF2D0022AF3D0032AF3D010BD28
:1008700030B50468256825F4802525600468636028
:100880008368402B036803D099600068C26030BD64
:100890009A600068C16030BD70477047704770470C
:1008A000704770B54379012B1AD001264671022397
:1008B000037105682C6840F6FE7393409C43D1E9B0
:1008C00000310B43934023432B6001680B68C02425
:1008D0009440A3430B60067100214171084670BD2E
:1008E000022070BD70477047704770B5040003D098
:1008F0002079002510B105E0012070BD657120460A
:1009000000F008F8022020712561012020710020EC
:1009100070BD000070B586B0054614216846FFF72B
:10092000A5FC1F492868884237D11E480026016867
:1009300041F000510160006800F000500590194836
:100940001038016841F0010101600068694600F05B
:1009500001000590102000900320CDE90106124807
:1009600000F01AFA124C114820604FF0606060608D
:100970004020C4E90206000120618000606180001F
:10098000A0618011C4E907062046666200F062F9A2
:1009900008B1FFF782FFAC60A56306B070BD000030
:1009A000007400404038024000000240886002406D
:1009B000F80100202DE9F04104460D461746617903
:1009C00000220698012920D001266671022121719A
:1009D000F5B1D4F80CC03149CCF83C10D4F80CC0B7
:1009E0002F49CCF84010D4F80CC02E49CCF84C104C
:1009F0002168D1F800C04CF0805CC1F800C090B311
:100A0000042834D0082837D134E00220BDE8F08132
:100A1000D4F808C02449CCF83C10D4F808C02349C5
:100A2000CCF84010D4F808C02149CCF84C1021680B
:100A3000D1F800C04CF4805CC1F800C020B104289B
:100A400005D0082808D105E02268083204E02268B1
:100A50000C3201E0226810322068016841F4005134
:100A60000160A0680EE0FFE72268143204E022680B
:100A7000183201E022681C322068016841F0005100
:100A80000160E068394600F04FF920680168AE4027
:100A90003143016000206071B8E70000930700084F
:100AA000DD070008BB07000883070008D30700081C
:100AB000A30700082DE9F84304464FF00009CDF8DC
:100AC000009063484FF41651A56D0068B0FBF1F734
:100AD0002E6894F85C10082000FA01F131420FD022
:100AE00021680A6852070BD50A6822F004020A60DE
:100AF00094F85C108840A860606D40F0010060656B
:100B000094F85C104FF0010808FA01F0304208D068
:100B100021684969090604D5A860606D40F00200AB
:100B2000606594F85C1004208840304208D0216849
:100B30000968890704D5A860606D40F0040060650D
:100B400094F85C1010208840304218D02168096861
:100B5000090714D5A86020680168490304D5006816
:100B6000000308D5A16C07E00168C90503D401683A
:100B700021F008010160216C09B12046884794F8F2
:100B80005C1020208840304231D021680968C906B5
:100B90002DD5A86094F8350005282068016806D096
:100BA000490347D5006800031DD4616C1CE021F0A7
:100BB000160101602068416921F080014161206CCB
:100BC00008B9A06C20B12068016821F0080101601B
:100BD00094F85C103F208840A86084F8349084F832
:100BE0003580216D1FE0E16B09B120468847606DBB
:100BF00000282BD0606DC00714D0052084F8350084
:100C00002068016821F0010101600098401C0090FB
:100C1000B84203D820680068C007F6D184F8349041
:100C200084F83580E16C002910D001B02046BDE881
:100C3000F04308470168C905D5D4016821F01001C7
:100C4000016084F8349084F83580CCE7BDE8F883FF
:100C50000C0000202DE9F041044600F071F9064631
:100C60005CB1002584F83450022084F835002068F7
:100C7000016821F0010101600DE00120BDE8F08173
:100C800000F05EF9801B052805D92020606503204F
:100C900084F83500F2E720680068C007F0D12268C8
:100CA000116820480140D4E901031843D4E9033610
:100CB0003343184363691843A3691843E36918432E
:100CC000236A18430843616A042903D1D4E90B134A
:100CD00019430843106020684069666A20F00701E4
:100CE00030460E43012704280CD1A06A0643E06A6F
:100CF00040B12046FFF792FD20B14020606584F8A6
:100D00003570BAE7206846612046FFF773FD94F816
:100D10005C203F2191408160656584F8357000203A
:100D2000ACE700003F8010F02DE9F0410446866DED
:100D300090F83400002501280DD0012084F83400FB
:100D400094F835700020012F07D084F83400022574
:100D50002846BDE8F0810220FBE7022784F83570C1
:100D600060652046FFF784FD94F85C103F208840C2
:100D7000B0602068016841F016010160206C20B16C
:100D80002068016841F0080101602068016841F0B5
:100D900001010160DCE700002DE9F84F00224FF06F
:100DA000010803254FF00F0E0B6808FA02F42340E8
:100DB000A3426ED14E68012E05D0022E03D0112E13
:100DC00001D0122E12D186684FEA420C05FA0CF7B8
:100DD000BE43CF6807FA0CF7374387604668A643DF
:100DE0000C79C4F30014944034434460C66857003F
:100DF00005FA07FC8C6826EA0C06BC403443C46044
:100E00004C68022C01D0122C13D1D40800EB8404BE
:100E1000A346D4F8209054074FEAD46A0EFA0AF693
:100E200029EA06090E6906FA0AF646EA0906CBF827
:100E3000206006680C7926EA0C0604F00304BC4026
:100E4000344304604C68E40060D5334C266846F4B3
:100E500080462660246822F0030604F4804400944F
:100E60002E4C3444A446D4F808489607370F0EFA9F
:100E700007F6B4432A4EB04201D100261FE0294EA6
:100E8000B04201D101261AE0274EB04202D102261B
:100E900015E03BE0254EB04201D103260FE0244E81
:100EA000B04201D104260AE0224EB04201D105260B
:100EB00005E0214EB04201D1062600E00726BE40E3
:100EC0002643CCF808681D4E34684F689C43FF03E6
:100ED00000D51C433460194E361D34684F689C435E
:100EE000BF0300D51C433460144E083634684F6885
:100EF0009C43FF0200D51C433460104E0C3634680E
:100F00004F689C43BF0200D51C433460521C102A1A
:100F1000FFF44AAFBDE8F88F44380240003001408A
:100F2000000002400004024000080240000C0240A1
:100F3000001002400014024000180240003C014032
:100F40000148806870470000000000200248816866
:100F50000278114481607047000000200B4810B5F2
:100F6000016841F400710160016841F48061016031
:100F7000016841F480710160032000F06FF80020E7
:100F800000F006F800F024F8002010BD003C0240FC
:100F900070B50D4D04464FF47A712878B1FBF0F02E
:100FA0000A490968B1FBF0F000F028FB48B9102CA1
:100FB00007D200222146501E00F030F800206C605D
:100FC00070BD012070BD0000000000200C0000205A
:100FD0000A4808B5016841F480410160006800F4E6
:100FE000804000900548001F016841F08051016079
:100FF000006800F08050009008BD000044380240B6
:10100000002809DB00F01F02012191404009800007
:1010100000F1E020C0F8001170470000F0B40E4B62
:101020001B680C46C3F30223C3F10705042D00D946
:101030000425191D072901D2002300E0DB1E01262B
:1010400006FA05F1491E214099409E40761E164041
:101050003143F0BC00F0D6BD0CED00E0064900F0D5
:10106000070208684FF6FF03184040EA0220034ACF
:1010700010430860704700000CED00E00000FA0526
:101080002DE9F8431748016841F08051016000687C
:10109000154F00F08050012600903E64FFF750FF8E
:1010A00005464FF47A78114C05E000BFFFF748FF82
:1010B000401B40450DD86068C003F7D57E64FFF73C
:1010C0003FFF0546464607E0FFF73AFF401BB042A8
:1010D00002D90320BDE8F88360688003F4D50020BE
:1010E000F8E700004038024000000E420070004067
:1010F0002DE9F0470E46050065D0DFF81481D8F8D9
:101100000000F7B200F00F00B04207D288F800707C
:10111000D8F8000000F00F00B04254D128683D4CD0
:10112000810712D5400703D5206840F4E0502060C5
:101130002878000703D5206840F4604020602068CC
:10114000A96820F0F000084320602878C0072DD05F
:10115000304968680839012812D0022813D00328C2
:1011600011D00968890700292DDA216821F00301CF
:1011700001432160FFF7E4FE814641F2883A0EE028
:1011800009688903EFE709688901ECE7FFF7D8FEF2
:10119000A0EB0901514502D90320BDE8F087206882
:1011A000696800F00C00B0EB810FEFD1D8F80010A7
:1011B000404601F00F01B14207D90770006800F006
:1011C0000F00B04201D00120E7E72878400705D59D
:1011D0002068E96820F4E050084320602878000780
:1011E00006D52068296920F4604040EAC1002060EB
:1011F00000F018F82168084AC1F30311515CC84097
:101200000649086006480068FFF7C2FE0020C4E7F0
:10121000003C024008380240842600080C000020F0
:1012200004000020224810B5006810F00C0221488C
:1012300015D04110042A11D01D4C241F082A0FD0AC
:101240000C2A0CD12268236802F03F025B0221D5F0
:101250002068C0F38810A0FB010120E0084610BD03
:101260002268236802F03F025B0205D52068C0F3C4
:101270008810A0FB010104E02168C1F38811A1FBE3
:1012800000010023FEF7BAFF2168C1F30141491CA8
:1012900049000AE02168C1F38811A1FB0001002385
:1012A000FEF7ACFF2168C1F30271B0FBF1F010BD95
:1012B000083802400024F4002DE9F84F0546DFF815
:1012C00028B30078ABF10407C007A7F1040451D09C
:1012D000DBF800105846C1F3810101290FD00168E5
:1012E000C1F38101022902D13968490207D400689B
:1012F000C0F38100032809D13868400206D5206870
:10130000800337D56868002872D033E06868B0F58C
:10131000803F10D0B0F5A02F206810D020F480308E
:101320002060206820F4802020606868A8B1FFF762
:1013300007FE06460DE0206840F48030F4E740F4F4
:1013400080202060F7E700BFFFF7FAFD801B6428CC
:1013500078D820688003F7D50CE0FFF7F1FD06464A
:1013600005E000BFFFF7ECFD801B6428F0D8206883
:101370008003F7D42878DFF8749280074FF0000AD2
:1013800046D5DBF80010584611F00C0F0FD001685D
:10139000C1F38101022902D13968490207D50068E9
:1013A000C0F38100032809D13868400206D42068C0
:1013B000800715D5E86801281AD111E0E868C0B1A6
:1013C0000120C9F80000FFF7BBFD064605E000BF9D
:1013D000FFF7B6FD801B0228BAD820688007F7D532
:1013E0002068296920F0F80040EAC10020600FE081
:1013F000F7E0C9F800A0FFF7A3FD064605E000BF2F
:10140000FFF79EFD801B02281CD820688007F7D4B8
:101410002878000727D5DFF8D0817548696908F179
:101420006C0881B101210160FFF78AFD064604E0E6
:10143000FFF786FD801B022804D8D8F8000080073B
:10144000F6D510E089E0C0F800A0FFF779FD064668
:1014500005E000BFFFF774FD801B02287DD8D8F897
:1014600000008007F6D42878400769D55E484FF021
:10147000000838300068C0000BD45B483830016881
:1014800041F08051016000684FF0010800F0805089
:101490000090584E3068C00511D4306840F4807018
:1014A0003060FFF74DFD009006E000BFFFF748FDFC
:1014B0000099401A022850D83068C005F6D54A4E27
:1014C000A868683601280FD00528306810D020F0B1
:1014D00001003060306820F004003060A868B8B1C6
:1014E000FFF72EFD00900FE0306840F00100F4E7B8
:1014F00040F004003060F7E7FFF722FD0099411A41
:1015000041F28830814264D830688007F4D50EE01B
:10151000FFF716FD009007E0FFF712FD0099411A52
:1015200041F28830814254D830688007F4D4B8F151
:10153000000F05D02C483830016821F0805101603F
:10154000A869A8B3DBF80010C1F38101022948D0D3
:101550000228C9F860A005D000E03AE0FFF7F0FCEF
:10156000054639E0FFF7ECFC064604E0FFF7E8FC2F
:10157000801B02282DD820688001F7D4F5E90701E7
:101580000843E9681C4A490802EB0141AA6841EA9C
:1015900082110843297C40EA0160297D40EA0170FC
:1015A00038600120C9F86000FFF7CAFC054606E074
:1015B00015E000BFFFF7C4FC401B022809D82068D3
:1015C0008001F7D50BE000BFFFF7BAFC401B0228F3
:1015D00002D90320BDE8F88F20688001F4D40020F0
:1015E000F8E70120F6E70000083802400000474213
:1015F000800E4742007000400000FFFF10B5401E03
:10160000B0F1807F01D3012010BD4FF0E024606174
:101610000F21601700F0F6FA0020A061072020617A
:10162000002010BD7047704770B590F83C20012A2B
:1016300032D0012480F83C40022280F83D2003682B
:101640005A689D6822F070060A6832435A60134B4C
:1016500002689A4214D0B2F1804F11D0104B9A42D6
:101660000ED0104B9A420BD00F4B9A4208D00F4B22
:101670009A4205D00E4B9A4202D00E4B9A4204D1A8
:10168000496825F080031943916080F83D400021AE
:1016900080F83C10084670BD022070BD000001407B
:1016A0000004004000080040000C0040000401401D
:1016B000004001400018004010B5040003D094F829
:1016C0003D0010B107E0012010BD002084F83C006F
:1016D000204600F00DF8022084F83D00211D20680E
:1016E00000F0DEF9012084F83D00002010BD00006C
:1016F00008B50068B0F1804F12D10A48016841F086
:10170000010101600068002200F001000090114614
:101710001C20FFF783FCBDE808401C20FFF770BCCD
:1017200008BD000040380240022180F83D100168E9
:101730008A6802F00702062A03D00A6842F0010212
:101740000A60012180F83D100020704770B5044602
:1017500090F83C00012817D0012584F83C50022065
:1017600084F83D002068826822F0770222F47F42EC
:1017700082600868502830D00DDC20284DD005DC70
:1017800098B310283BD148E0022070BD302844D0E7
:10179000402834D139E0602828D0702806D0B0F530
:1017A000805F2CD0B0F5005F29D10AE0CB68D1E989
:1017B0000121206800F0D8F92068816841F07701A4
:1017C00009E0CB68D1E90121206800F0CDF920685B
:1017D000816841F48041816011E0CA6849682068ED
:1017E00000F0D4F95021206807E016E0CA68496883
:1017F000206800F0DCF96021206800F0BFF984F86F
:101800003D50002084F83C0070BDCA6849682068DB
:1018100000F0BCF940212068EFE72268014610463D
:10182000EBE7704770B50446006801694FF00005AA
:10183000C943890715D4C168C943890711D4E91E72
:10184000016101202077206880698007204602D04E
:10185000FFF7E7FF04E000F098F8204600F096F864
:10186000257720680169C943490717D4C168C9436E
:10187000490713D46FF0040101610220207720682A
:10188000806910F4407F204602D0FFF7CAFF04E0D1
:1018900000F07BF8204600F079F825772068016990
:1018A000C943090716D4C168C943090712D46FF0A8
:1018B00008010161042020772068C0698007204664
:1018C00002D0FFF7AEFF04E000F05FF8204600F022
:1018D0005DF8257720680169C943C90617D4C16836
:1018E000C943C90613D46FF01001016108202077A5
:1018F0002068C06910F4407F204602D0FFF791FFB6
:1019000004E000F042F8204600F040F82577206817
:101910000169C943C90708D1C168C943C90704D1CE
:10192000891E0161204600F032F820680169C94330
:10193000090609D4C168C943090605D46FF08001BE
:1019400001612046FFF76EFE20680169C943490620
:1019500009D4C168C943490605D46FF0400101614B
:10196000204600F015F820680169C94389060BD4A8
:10197000C168C943890607D46FF020010161204680
:10198000BDE87040FFF74FBE70BD704770477047AD
:101990007047FEE710B586B000241148009401940A
:1019A0000294039404944FF08041059401605921FE
:1019B000C0E901146321C0E903148461FFF77CFED0
:1019C0004FF48050009069460548FFF7BFFE202085
:1019D000CDE9040404A90248FFF726FE06B010BDB5
:1019E00028000020FEE7704770477047FFF7AEBA47
:1019F00030B593B034216846FEF738FC14210DA8A9
:101A0000FEF734FC1A480025016841F0805101605E
:101A1000006800F0805012901648016841F440417F
:101A200001600068022400F44040129001200390FD
:101A300010200490009406940820CDE90750B420AB
:101A4000CDE909040B9468460C94FFF735FCFFF7C9
:101A500017FB0DA90F2081E831004FF4A050109022
:101A6000E002119005210DA8FFF742FB13B030BD35
:101A700040380240007000400548016841F47001A0
:101A8000016003494FF00060803908607047000032
:101A900088ED00E00148FFF7C5BE000028000020E7
:101AA000F0B50268254C264D264E274F274B4FF0A8
:101AB000804CA04209D0604507D0A84205D0B04272
:101AC00003D0B84201D0984204D122F0700E4A6887
:101AD00042EA0E02A0421BD0604519D0A84217D09E
:101AE000B04215D0B84213D0984211D0184DA84238
:101AF0000ED0184DA8420BD0174DA84208D0174D54
:101B0000A84205D0164DA84202D0164DA84203D1D6
:101B100022F44075CA682A434D6922F080022A43A4
:101B200002608A68C2620A688262A04201D098425A
:101B300001D10969016301214161F0BD000001404B
:101B40000004004000080040000C00400004014078
:101B5000004001400044014000480140001800409E
:101B6000001C00400020004010B5846842EA0322B7
:101B700024F47F440A432243826010BD826822F02D
:101B800070020A4342F007018160704710B5036A92
:101B9000046A24F001040462846924F0F00444EA35
:101BA000021423F00A020A438461026210BD10B5D8
:101BB000036A23F0100303628369046A23F4704309
:101BC00043EA023224F0A00343EA01118261016278
:101BD00010BDFEE703B401984100009850EAC1200F
:101BE00018BF04204A0D18BF40F0010040F2FF72F8
:101BF000B2EB515F08BF40F00200012808BF05208A
:101C000002B070470907090E002804DB00F1E0204C
:101C100080F80014704700F00F0000F1E02080F819
:101C2000141D70470000000010B52F499FED2C1BBC
:101C30002DED020B84B0059820F000408842DCBFF7
:101C400000209DED040B32DD2849884209D104981B
:101C500040B94FF0010000F06FFC00F03DFC06B011
:101C600010BD05DB9DED040B00F02AFC06B010BD95
:101C700068469DED040B00F03BF810F0030011D016
:101C8000012818D09DED021B9DED000B02281AD0F3
:101C900000F04AFA51EC100B81F0004106B041EC23
:101CA000100B10BD9DED021B9DED000B012000F0FF
:101CB0006FFB06B010BD9DED021B9DED000B00F00B
:101CC00033FA06B010BD012000F062FB51EC100B9E
:101CD00081F0004106B041EC100B10BD0000000087
:101CE0000000000000000000FB21E93F0000F07F41
:101CF0002DE9F14F04462DED020B2DED088B8AB036
:101D00009FEDE70B80ED020B139EE74826F00045A0
:101D100085420ADC9DED120B002084ED000B0AB019
:101D2000BDEC088B03B0BDE8F08FE0489FEDE0AB61
:101D30009FEDE1BBA84247DDE14F9FEDE39B9FEDA7
:101D4000E48B9DED120B53EC1A2B51EC100B002E73
:101D50001CDDFEF737FB41EC100BBD4208D053EC05
:101D60001B2B51EC100BFEF72DFBC4E900010BE01F
:101D700053EC192B51EC100BFEF724FB53EC182BF2
:101D8000FEF720FBC4E900010120C8E7FEF779FA5D
:101D900041EC100BBD4208D053EC1B2B51EC100B47
:101DA000FEF76FFAC4E900010BE053EC192B51EC7C
:101DB000100BFEF766FA53EC182BFEF762FAC4E933
:101DC00000014FF0FF30AAE7C348A84279DB9DED40
:101DD000120B51EC100B00F0B5FB41EC180B9FED12
:101DE000C00B53EC102BFEF7F3FA9FEDBF1B53EC27
:101DF000112BFEF746FAFEF7A4FC0746FEF7C9FBD7
:101E000041EC190B53EC1A2BFEF7E2FA53EC182BAA
:101E1000FEF7DBFA41EC180B53EC1B2B51EC190BC2
:101E2000FEF7D6FADFF8C8A241EC100B4FEA1558BE
:101E30000125FA4453EC102B51EC180BFEF7C2FAB3
:101E4000032DC4E900013DD0C1F30A5005EB451153
:101E5000A8EB00001139814234DA0AEB051BB0EE21
:101E600048AA9BED000BF0EE68AA53EC102B51EC46
:101E7000190BFEF7ADFA41EC1B0B51EC1A0B53ECAE
:101E80001B2BFEF79FFA41EC180B51EC1A0B53EC8D
:101E9000182BFEF797FA53EC1B2BFEF793FA9BEDEA
:101EA000020B41EC1A0B53EC102B51EC190BFEF703
:101EB0008FFA53EC1A2BFEF785FA41EC100B6D1CD0
:101EC000B8E70EE0002EA8BF3846BFF628AF94ED65
:101ED000000B51EC100B81F00041C4E90001784285
:101EE0001DE7C6F3130040F4801EC6F30A50A0F2AB
:101EF000F530471100F01F05C5F12000DDF848B0AE
:101F000008900020069007900520EC467949002DA6
:101F100007EB0002794408BF51F8221009D051F8AC
:101F2000223001EB8201AB404A68089922FA01F1A4
:101F30001943A1FB0E26A1FB0B131A449A4234BF8E
:101F40000123002303EB06080CEB8003D3E901A671
:101F50000E448E4234BF0121002192448A4411B1C3
:101F6000924502D903E0924501D2012100E000210F
:101F7000C3E901A641444CF82010011EA0F1010064
:101F8000C4DC029800F10050850F0298DDE9036778
:101F90008000DDF81480FEF7FCFA41EC1A0B3046A5
:101FA000FEF7C2FB9FED541B53EC112BFEF710FA0A
:101FB00041EC1B0B3846FEF7B7FB9FED511B53EC72
:101FC000112BFEF705FA41EC180B4046FEF7ACFB6F
:101FD0009FED4D1B53EC112BFEF7FAF941EC190B59
:101FE00051EC180B53EC192BFEF74BF953EC1B2B50
:101FF000FEF747F953EC1A2BFEF743F9CDE9080138
:10200000002008909DED080B53EC1A2B51EC100B9F
:10201000FEF7D8F953EC1B2BFEF7D4F953EC182B31
:10202000FEF7D0F953EC192BFEF7CFF99FED381BD3
:1020300053EC112BFEF7CCF99FED370B41EC180B4D
:1020400053EC102B9DED080B51EC100BFEF7C0F973
:1020500053EC182BFEF715F99FED310B41EC180BE3
:1020600053EC102B9DED080B51EC100BFEF7B0F963
:1020700053EC182BFEF705F941EC100B139810F0F8
:10208000004F06D06D4251EC100B81F0004141EC45
:10209000100B284684ED000B41E600000000000014
:1020A0000000000000000000FB21E93F7CD9024055
:1020B00000004054FB21F93F3163621A61B4D03D06
:1020C000FB21F93F000000000000601A61B4D03D20
:1020D0007370032E8A19A33BFB21394100000000D5
:1020E00083C8C96D305FE43F000000000000E03F9E
:1020F00092080000E0070000000000000000103E11
:10210000000000000000103C000000000000103A39
:10211000182D4454FB21F93D3326A611460B113CE2
:1021200000000054FB21F93D10B52DED040B2DED01
:10213000088B82B0B0EE419AF0EE619A0B9820F0D5
:1021400000449FED4BABB4F1795F11DA9DED0A0BC2
:1021500051EC100BFEF7F5FA002801BFB0EE4A0A69
:10216000F0EE6A0A02B0BDEC088B04BF04B010BDEB
:102170009DED0A0B53EC102B51EC100BFEF728F9D8
:1021800041EC180B3C480621B0EE480AF0EE680A14
:10219000784400F081F853EC182B51EC100BFEF74B
:1021A00017F99DED0A0B41EC1B0B53EC192B51EC6D
:1021B000100BFEF70DF941EC190B53EC1B2B51ECF6
:1021C000180BFEF705F953EC192BFEF7FBF89FED02
:1021D0002C0B41EC190B53EC102B51EC180BFEF7A8
:1021E000F7F841EC100B2848844210DA53EC192B15
:1021F00051EC100BFEF7E6F853EC1A2BFEF7E5F85E
:1022000041EC100B02B0BDEC088B04B010BD1F48B0
:10221000A042BCBF9FED1E1B8DED001B06DBA4F58D
:1022200000100190002000909DED001B51EC100B60
:1022300053EC112BFEF7C6F89DED000B41EC180B8B
:1022400053EC102B51EC1A0BFEF7BCF841EC1A0BB7
:1022500053EC192B51EC180BFEF7B4F853EC1A2B76
:10226000FEF7B3F841EC100BCCE7000000000000D3
:10227000000000000000F03F040500000000000026
:10228000000000000000E03F3333D33F0000E93F8F
:10229000000000000000D23F70B504462DED028B17
:1022A0004D1E00EBC500B0EE408AF0EE608A90ED66
:1022B000000B35F0060017D053EC182B51EC100B27
:1022C000FEF786F841EC100B6D1E04EBC50090ED97
:1022D000001B51EC100B53EC112BFDF7D2FF41EC1E
:1022E000100B35F00600E7D1022D36D0042D1CD09E
:1022F000062D1CBFBDEC028B70BD53EC182B51ECAE
:10230000100BFEF765F894ED0A1B53EC112BFDF74B
:10231000B8FF53EC182BFEF75BF894ED081B53EC59
:10232000112BFDF7AEFF41EC100B53EC182B51ECC9
:10233000100BFEF74DF894ED061B53EC112BFDF737
:10234000A0FF53EC182BFEF743F894ED040B53EC6D
:10235000102BFDF796FF41EC100B53EC182B51ECB2
:10236000100BFEF735F894ED021B53EC112BFDF723
:1023700088FF53EC182BFEF72BF894ED001B53EC61
:10238000112BFDF77EFFBDEC028B41EC100B70BDF5
:1023900031B504462DED040B2DED0A8BB0EE41BA9C
:1023A000F0EE61BA0B989DED0A0B20F00040B0F101
:1023B000795F0DDA51EC100BFFF70CFC042808BF15
:1023C00000F09AF89DED0A0BBDEC0A8B05B030BD0C
:1023D00053EC102B51EC100BFDF7FAFF41EC180BEE
:1023E0009DED0A0B53EC182B51EC100BFDF7F0FF91
:1023F00041EC190B2C48B0EE480AF0EE680A0521B2
:102400007844FFF749FF9FED2ACBB0EE40AAF0EEEB
:1024100060AA9CB353EC1C2B51EC190BFDF7D8FFB1
:1024200041EC1C0B53EC1A2B51EC190BFDF7D0FFB0
:102430009FED210B41EC190B53EC102B51EC1B0BB6
:10244000FDF7C6FF53EC192BFDF7BCFF53EC182B1F
:10245000FDF7BEFF53EC1B2BFDF7B4FF53EC1C2B19
:10246000FDF7B0FF9DED0A1B53EC112BFDF7ADFFFF
:10247000BDEC0A8B05B041EC100B30BDFFE753EC0F
:102480001A2B51EC180BFDF7A3FF53EC1C2BFDF797
:10249000F8FE53EC192BFDF79BFF9DED0A1B53EC47
:1024A000112BFDF7EEFEE3E78C03000000000000B7
:1024B000495555555555C5BF000000000000E03F87
:1024C00010B553EC102B51EC100BFDF7DAFE41EC7C
:1024D000100B10BD000000009FED050B10B553EC74
:1024E000102B51EC100BFDF7E5FF41EC100B10BD6C
:1024F00000000000000000009FED050B10B553EC3C
:10250000102B51EC100BFDF763FF41EC100B10BDCD
:10251000000000000000001002E008C8121F08C1FF
:10252000002AFAD170477047002001E001C1121F54
:10253000002AFBD170470000014908607047000085
:102540001000002082B0CDE9000121F00040019090
:102550009DED000B02B051EC100B704770B51F4D94
:1025600000242DED088B9FED158B9FED169B9FEDA5
:1025700017AB9FED18BB6000FEF70BF853EC182B60
:10258000FDF726FF53EC192BFDF794FF41EC100BE0
:10259000FFF74AFB53EC1A2B51EC100BFDF771FEC1
:1025A00053EC1B2BFDF714FFFEF704F845F824004D
:1025B000641C642CDFDBBDEC088B70BD4AD8124D67
:1025C000FB2109400000000000005940000000000D
:1025D0000000F03F000000000000A0406800002064
:1025E0001CB5FEF7BBFCFFF703FA21480024016885
:1025F00041F080010160016801F0800100910168F3
:1026000041F001010160016801F0010100910168E0
:1026100041F4001101600068002200F400100090F5
:1026200011461020FEF7FAFC1020FEF7E9FC1249D3
:1026300000941048019408600846FEF756F92420DB
:10264000CDE90004002269460B48FEF72AF9FFF79E
:10265000A1F909481430FFF767F8FFF77FFF064A32
:1026600064235432002104480094FEF7A3F9FEE7E6
:10267000303802400074004014000020000610169C
:102680000006101600000000000000000102030414
:1026900006070809000000004C5555555555A53F43
:1026A0007751C1166CC156BF9015CB19A001FA3EE7
:1026B000AD529C804F7E92BEC4B1B4BD9EEE213E11
:1026C000D43888BEE9FAA8BD00004054FB21F93F88
:1026D0003163621A61B4D03D0000601A61B4D03D2C
:1026E0007370032E8A19A33B0000002E8A19A33BA6
:1026F000C14920259A837B390000000000000000BA
:102700006E83F9A22915444ED15727FCC0DD34F55C
:10271000999562DB4190433CAB6351FE61C5BBDEE2
:102720003A6E24B7E0D24D42EA2E49061C92D109F6
:102730001CEB1DFE3EA729B1F53582E88444BB2E73
:1027400026709CE9417E5FB439D69139F4395383C0
:102750008B5F849C3B28F9BDFF97F81F0F9805DE1F
:102760008B112FEF1F6D0A5ACF7E366DB709CB271D
:10277000663F464F2DEA5F9EC7BA27757BF1E5EBB2
:10278000F739073DEA92528AB15FFB6B085D8D1FF6
:10279000A6F810111111813FD561C119A0012ABFFE
:1027A0007DFEB157E31DC73EEB9C2B8AE6E55ABE82
:1027B0007CD5CF5A3AD9E53DD82700080000002043
:1027C0001400000018250008EC2700081400002061
:1027D0004406000028250008010000001000000049
:0C27E000000000000024F40000000000D5
:04000005080001C529
:00000001FF
