:020000040800F2
:1000000030040020D9010008B90E0008B50E000820
:10001000B70E0008C9040008690F000800000000BE
:10002000000000000000000000000000BD0E0008FD
:10003000CB04000800000000BB0E0008BF0E000843
:10004000F3010008F3010008F3010008F3010008C0
:10005000F3010008F3010008F3010008F3010008B0
:10006000F3010008F3010008F3010008F3010008A0
:10007000F3010008F3010008F3010008F301000890
:10008000F3010008F3010008F3010008F301000880
:10009000F3010008F3010008F3010008F301000870
:1000A000F3010008F3010008F3010008F301000860
:1000B000F3010008F3010008F3010008F301000850
:1000C000F3010008F3010008F3010008F301000840
:1000D000F3010008F3010008F3010008F301000830
:1000E000F3010008F3010008F3010008F301000820
:1000F000F3010008F3010008F3010008F301000810
:10010000F3010008F3010008F3010008F3010008FF
:10011000F3010008F3010008F3010008F3010008EF
:10012000F3010008F3010008F3010008F3010008DF
:10013000F30100080000000000000000F3010008C7
:10014000F3010008F3010008F3010008F3010008BF
:10015000F3010008F3010008F3010008F3010008AF
:10016000F3010008F3010008F3010008F30100089F
:10017000F3010008F3010008F3010008000000008B
:1001800000000000F3010008000000000000000073
:10019000F30100080000000000000000F301000867
:1001A000000000000000000000000000F301000853
:1001B000F3010008F3010008F3010008F30100084F
:1001C000F3010008DFF80CD000F06CF9004800479C
:1001D000A90F000830040020064880470648004761
:1001E000FEE7FEE7FEE7FEE7FEE7FEE7FEE7FEE7E7
:1001F000FEE7FEE74D0F0008C50100082DE9F05F9E
:100200000546002092469B46884606468146402485
:100210001BE0284641464746224600F0D6F85346A2
:100220005A46C01A914110D311461846224600F092
:10023000BDF82D1A67EB01084F4622460120002128
:1002400000F0B4F817EB00094E41201EA4F10104A0
:10025000DFDC484631462A464346BDE8F09FD2B22D
:1002600001E000F8012B491EFBD270470022F6E79F
:1002700010B513460A4604461946FFF7F0FF20461C
:1002800010BD2DE9F04D81EA030404F0004B21F08C
:10029000004514464FF0000A23F0004150EA0502E1
:1002A00020D054EA01021DD0C5F30A570246C5F317
:1002B0001303C1F31300C1F30A5640F4801543F44D
:1002C0008013A7EB0608101BD64608F2FD3873EB27
:1002D000050002D308F1010801E092185B41B8F172
:1002E000000F03DA00200146BDE8F08D00204FF436
:1002F0008011064684460EE0171B73EB050705D3F5
:10030000121B63EB050306434CEA010C49084FEA54
:10031000300092185B4150EA0107EDD152EA030028
:1003200012D082EA040083EA0501084305D0101BBD
:10033000AB4106D20122002306E000224FF0004329
:1003400002E06FF0010253101AEB06004CEB08516B
:1003500010EB0A0041EB0B01BDE8F04D00F045B891
:100360000EB540F2334102910021CDE900110A4659
:100370000B4600F049F803B000BDC1F30A5210B5B6
:10038000C1F3130140F2FF3341F480119A4201DAC4
:10039000002010BD40F233439A42A2F2334203DC04
:1003A000524200F012F810BD904010BD202A04DB2C
:1003B000203A00FA02F1002070479140C2F1200378
:1003C00020FA03F3194390407047202A04DB203AB7
:1003D00021FA02F00021704721FA02F3D040C2F165
:1003E0002002914008431946704710B5141E73F15E
:1003F000000408DA401C41F1000192185B411A43E5
:1004000001D120F0010010BD2DE9F04D92469B4630
:1004100011B1B1FA81F202E0B0FA80F220329046D6
:10042000FFF7C4FF04460F4640EA0A0041EA0B0109
:1004300053465A46084313D0114653EA010019D0D7
:10044000C8F140025046FFF7C0FF05460E46504631
:1004500059464246FFF7AAFF084305D0012004E0B1
:1004600020463946BDE8F08D0020054346EAE07697
:100470002C4337430A986305E40AA0EB08000022E6
:10048000FD0A44EA47540A3002D500200146E9E754
:10049000010510196941DDE9084500196941BDE808
:1004A000F04DA2E7064C074D06E0E06840F001037E
:1004B00094E8070098471034AC42F6D3FFF786FE65
:1004C00090100008B0100008FEE7704770B543793F
:1004D000012B1AD0012646710223037105682C688E
:1004E00040F6FE7393409C43D1E900310B439340A7
:1004F00023432B6001680B68C0249440A3430B6026
:10050000067100214171084670BD022070BD70B5B2
:10051000040003D02079002510B105E0012070BD52
:100520006571204600F008F8022020712561012045
:100530002071002070BD000010B586B00446142163
:100540006846FFF793FE1149206888421CD1104885
:100550000021026842F000520260006800F0005082
:1005600005900B481038026842F0010202600068F2
:1005700000F001000590102000900320CDE901015A
:100580006946044800F05EF806B010BD00740040F3
:10059000403802400000024018B50468009400682A
:1005A000104421B1143000900360002018BD0830C1
:1005B000F9E730B54279012A16D0012242710223AF
:1005C000037103681D6802FA01F425431D600029C8
:1005D00001680B680AD00C6803F4802304F46014EB
:1005E000B3F5802F0FD015E0022030BD0C6803F06A
:1005F000040304F03804042B0CD1382C0AD14B68C6
:1006000043F0010305E0B4F5601F03D14B6843F0EC
:1006100002034B60027100214171084630BD0000A9
:1006200070B5044600F0E2F80546601C02D00448AC
:100630000078044400F0DAF8401BA042FAD370BD01
:10064000080000202DE9F84F00224FF00108032593
:100650004FF00F0E0B6808FA02F42340A3426ED14C
:100660004E68012E05D0022E03D0112E01D0122E7D
:1006700012D186684FEA420C05FA0CF7BE43CF68E8
:1006800007FA0CF7374387604668A6430C79C4F332
:100690000014944034434460C668570005FA07FCD0
:1006A0008C6826EA0C06BC403443C4604C68022CBB
:1006B00001D0122C13D1D40800EB8404A346D4F843
:1006C000209054074FEAD46A0EFA0AF629EA06097E
:1006D0000E6906FA0AF646EA0906CBF820600668B3
:1006E0000C7926EA0C0604F00304BC403443046091
:1006F0004C68E40060D5334C266846F4804626609A
:10070000246822F0030604F4804400942E4C344400
:10071000A446D4F808489607370F0EFA07F6B443F4
:100720002A4EB04201D100261FE0294EB04201D12D
:1007300001261AE0274EB04202D1022615E03BE026
:10074000254EB04201D103260FE0244EB04201D124
:1007500004260AE0224EB04201D1052605E0214ED2
:10076000B04201D1062600E00726BE402643CCF861
:1007700008681D4E34684F689C43FF0300D51C4336
:100780003460194E361D34684F689C43BF0300D552
:100790001C433460144E083634684F689C43FF0293
:1007A00000D51C433460104E0C3634684F689C43AF
:1007B000BF0200D51C433460521C102AFFF44AAF1C
:1007C000BDE8F88F4438024000300140000002408C
:1007D0000004024000080240000C024000100240E9
:1007E0000014024000180240003C014001488068AB
:1007F0007047000008000020024881680278114418
:1008000081607047080000200B4810B5016841F472
:1008100000710160016841F480610160016841F488
:1008200080710160032000F061F8002000F006F8FC
:1008300000F024F8002010BD003C024070B50D4DC2
:1008400004464FF47A712878B1FBF0F00A49096840
:10085000B1FBF0F000F01AFB48B9102C07D20022CF
:100860002146501E00F022F800206C6070BD01206F
:1008700070BD000008000020140000200A4808B5E0
:10088000016841F480410160006800F480400090FC
:100890000548001F016841F080510160006800F0C8
:1008A0008050009008BD000044380240F0B40E4B68
:1008B0001B680C46C3F30223C3F10705042D00D9BE
:1008C0000425191D072901D2002300E0DB1E0126A3
:1008D00006FA05F1491E214099409E40761E1640B9
:1008E0003143F0BC00F041BB0CED00E0064900F0E4
:1008F000070208684FF6FF03184040EA0220034A47
:1009000010430860704700000CED00E00000FA059D
:100910002DE9F8431748016841F0805101600068F3
:10092000154F00F08050012600903E64FFF75EFFF7
:1009300005464FF47A78114C05E000BFFFF756FFEB
:10094000401B40450DD86068C003F7D57E64FFF7B3
:100950004DFF0546464607E0FFF748FF401BB04203
:1009600002D90320BDE8F88360688003F4D5002035
:10097000F8E700004038024000000E4200700040DE
:100980002DE9F0470E46050065D0DFF81481D8F850
:100990000000F7B200F00F00B04207D288F80070F4
:1009A000D8F8000000F00F00B04254D128683D4C48
:1009B000810712D5400703D5206840F4E05020603D
:1009C0002878000703D5206840F460402060206844
:1009D000A96820F0F000084320602878C0072DD0D7
:1009E000304968680839012812D0022813D003283A
:1009F00011D00968890700292DDA216821F0030147
:100A000001432160FFF7F2FE814641F2883A0EE091
:100A100009688903EFE709688901ECE7FFF7E6FE5B
:100A2000A0EB0901514502D90320BDE8F0872068F9
:100A3000696800F00C00B0EB810FEFD1D8F800101E
:100A4000404601F00F01B14207D90770006800F07D
:100A50000F00B04201D00120E7E72878400705D514
:100A60002068E96820F4E0500843206028780007F7
:100A700006D52068296920F4604040EAC100206062
:100A800000F018F82168084AC1F30311515CC8400E
:100A90000649086006480068FFF7D0FE0020C4E75A
:100AA000003C02400838024080100008140000207A
:100AB0000C000020224810B5006810F00C022148FC
:100AC00015D04110042A11D01D4C241F082A0FD024
:100AD0000C2A0CD12268236802F03F025B0221D568
:100AE0002068C0F38810A0FB010120E0084610BD7B
:100AF0002268236802F03F025B0205D52068C0F33C
:100B00008810A0FB010104E02168C1F38811A1FB5A
:100B100000010023FFF772FB2168C1F30141491C6A
:100B200049000AE02168C1F38811A1FB00010023FC
:100B3000FFF764FB2168C1F30271B0FBF1F010BD57
:100B4000083802400024F4002DE9F84F0546DFF88C
:100B500028B30078ABF10407C007A7F1040451D013
:100B6000DBF800105846C1F3810101290FD001685C
:100B7000C1F38101022902D13968490207D4006812
:100B8000C0F38100032809D13868400206D52068E7
:100B9000800337D56868002872D033E06868B0F504
:100BA000803F10D0B0F5A02F206810D020F4803006
:100BB0002060206820F4802020606868A8B1FFF7DA
:100BC00015FE06460DE0206840F48030F4E740F45E
:100BD00080202060F7E700BFFFF708FE801B642835
:100BE00078D820688003F7D50CE0FFF7FFFD0646B4
:100BF00005E000BFFFF7FAFD801B6428F0D82068ED
:100C00008003F7D42878DFF8749280074FF0000A49
:100C100046D5DBF80010584611F00C0F0FD00168D4
:100C2000C1F38101022902D13968490207D5006860
:100C3000C0F38100032809D13868400206D4206837
:100C4000800715D5E86801281AD111E0E868C0B11D
:100C50000120C9F80000FFF7C9FD064605E000BF06
:100C6000FFF7C4FD801B0228BAD820688007F7D59B
:100C70002068296920F0F80040EAC10020600FE0F8
:100C8000F7E0C9F800A0FFF7B1FD064605E000BF98
:100C9000FFF7ACFD801B02281CD820688007F7D422
:100CA0002878000727D5DFF8D0817548696908F1F1
:100CB0006C0881B101210160FFF798FD064604E050
:100CC000FFF794FD801B022804D8D8F800008007A5
:100CD000F6D510E089E0C0F800A0FFF787FD0646D2
:100CE00005E000BFFFF782FD801B02287DD8D8F801
:100CF00000008007F6D42878400769D55E484FF099
:100D0000000838300068C0000BD45B4838300168F8
:100D100041F08051016000684FF0010800F0805000
:100D20000090584E3068C00511D4306840F480708F
:100D30003060FFF75BFD009006E000BFFFF756FD57
:100D40000099401A022850D83068C005F6D54A4E9E
:100D5000A868683601280FD00528306810D020F028
:100D600001003060306820F004003060A868B8B13D
:100D7000FFF73CFD00900FE0306840F00100F4E721
:100D800040F004003060F7E7FFF730FD0099411AAA
:100D900041F28830814264D830688007F4D50EE093
:100DA000FFF724FD009007E0FFF720FD0099411AAE
:100DB00041F28830814254D830688007F4D4B8F1C9
:100DC000000F05D02C483830016821F080510160B7
:100DD000A869A8B3DBF80010C1F38101022948D04B
:100DE0000228C9F860A005D000E03AE0FFF7FEFC59
:100DF000054639E0FFF7FAFC064604E0FFF7F6FC8B
:100E0000801B02282DD820688001F7D4F5E907015E
:100E10000843E9681C4A490802EB0141AA6841EA13
:100E200082110843297C40EA0160297D40EA017073
:100E300038600120C9F86000FFF7D8FC054606E0DD
:100E400015E000BFFFF7D2FC401B022809D820683C
:100E50008001F7D50BE000BFFFF7C8FC401B02285C
:100E600002D90320BDE8F88F20688001F4D4002067
:100E7000F8E70120F6E7000008380240000047428A
:100E8000800E4742007000400000FFFF10B5401E7A
:100E9000B0F1807F01D3012010BD4FF0E0246061EC
:100EA0000F21601700F061F80020A0610720206189
:100EB000002010BDFEE7FEE7704770477047FFF760
:100EC0009BBC000030B593B034216846FFF7CEF9E3
:100ED00014210DA8FFF7CAF91A480025016841F04E
:100EE00080510160006800F080501290164801683F
:100EF00041F4404101600068022400F44040129037
:100F00000120039010200490009406940820CDE95D
:100F10000750B420CDE909040B9468460C94FFF700
:100F200013FEFFF7F5FC0DA90F2081E831004FF407
:100F3000A0501090E002119005210DA8FFF720FDB0
:100F400013B030BD403802400070004005480168D1
:100F500041F47001016003494FF00060803908607E
:100F60007047000088ED00E0FEE70907090E002841
:100F700004DB00F1E02080F80014704700F00F005F
:100F800000F1E02080F8141D704702E008C8121F2D
:100F900008C1002AFAD170477047002001E001C162
:100FA000121F002AFBD170472DED048B82B0FFF792
:100FB0002BFCFFF787FF2A480024016841F08001DD
:100FC0000160016801F080010091016841F00101B8
:100FD00001600068244900F0010000942148019458
:100FE00008600846FFF793FA0094002269461E48FD
:100FF0000194FFF76BFA00211B48FFF7DAFA9FED27
:101000001B9B1C4D1C4CB6EE008A40F2EE2600BF26
:1010100094ED000ABCEEC00A10EE100A0003FFF7C0
:101020009FF953EC192BFFF72CF9FFF7A6F90346AC
:101030000022606011460C48FFF7AEFA94ED000AFA
:10104000304630EE080A84ED000AFFF7E9FA20681E
:10105000A842DDDD9FED090A84ED000AD8E7000013
:101060003038024000740040180000206666666652
:1010700066660A400000404000000020CDCC4C3E97
:101080000000000000000000010203040607080938
:10109000B010000800000020180000008A0F0008AF
:1010A000C810000818000020180400009A0F00085B
:1010B000CDCC4C3E000000000100000010000000FC
:0810C000000000000024F40010
:04000005080001C529
:00000001FF
