:020000040800F2
:1000000010040020D9010008E70B0008590B000874
:10001000E50B0008E5020008810C00080000000064
:10002000000000000000000000000000EB0B0008D2
:10003000E702000800000000E90B0008ED0B0008D3
:10004000F3010008F3010008F3010008F3010008C0
:10005000F3010008F3010008F3010008F3010008B0
:10006000F3010008F3010008F3010008F3010008A0
:10007000F3010008F3010008F3010008F301000890
:10008000F3010008F3010008F3010008F301000880
:10009000F3010008F3010008F3010008F301000870
:1000A000F3010008F3010008F3010008F301000860
:1000B000F3010008F3010008F3010008F301000850
:1000C000F3010008F3010008F3010008F301000840
:1000D000F3010008F3010008F3010008F301000830
:1000E000E9020008F3010008F3010008F301000829
:1000F000F3010008F3010008F3010008F301000810
:10010000F3010008F3010008F3010008F3010008FF
:10011000F3010008F3010008F3010008F3010008EF
:10012000F3010008F3010008F3010008F3010008DF
:10013000F30100080000000000000000F3010008C7
:10014000F3010008F3010008F3010008F3010008BF
:10015000F3010008F3010008F3010008F3010008AF
:10016000F3010008F3010008F3010008F30100089F
:10017000F3010008F3010008F3010008000000008B
:1001800000000000F3010008000000000000000073
:10019000F30100080000000000000000F301000867
:1001A000000000000000000000000000F301000853
:1001B000F3010008F3010008F3010008F30100084F
:1001C000F3010008DFF80CD000F07AF8004800478F
:1001D000C10C00081004002006488047064800476C
:1001E000FEE7FEE7FEE7FEE7FEE7FEE7FEE7FEE7E7
:1001F000FEE7FEE7650C0008C50100082DE9F05F89
:100200000546002092469B46884606468146402485
:100210001BE0284641464746224600F041F8534637
:100220005A46C01A914110D311461846224600F092
:1002300028F82D1A67EB01084F46224601200021BD
:1002400000F01FF817EB00094E41201EA4F1010435
:10025000DFDC484631462A464346BDE8F09FD2B22D
:1002600001E000F8012B491EFBD270470022F6E79F
:1002700010B513460A4604461946FFF7F0FF20461C
:1002800010BD202A04DB203A00FA02F1002070475A
:100290009140C2F1200320FA03F3194390407047C4
:1002A000202A04DB203A21FA02F00021704721FACB
:1002B00002F3D040C2F12002914008431946704732
:1002C000064C074D06E0E06840F0010394E80700A3
:1002D00098471034AC42F6D3FFF778FFE00C0008E3
:1002E000000D0008FEE7704710B52021044800F01B
:1002F000EBF8BDE810404FF4005000F005B80000E6
:100300000000024070470000044910B50A6802422C
:1003100002D00860FFF7F6FF10BD0000143C01405A
:100320002DE9F84F00224FF0010803254FF00F0E82
:100330000B6808FA02F42340A3426ED14E68012EE6
:1003400005D0022E03D0112E01D0122E12D18668B4
:100350004FEA420C05FA0CF7BE43CF6807FA0CF7D8
:10036000374387604668A6430C79C4F30014944071
:1003700034434460C668570005FA07FC8C6826EAD7
:100380000C06BC403443C4604C68022C01D0122CD3
:1003900013D1D40800EB8404A346D4F8209054076A
:1003A0004FEAD46A0EFA0AF629EA06090E6906FA35
:1003B0000AF646EA0906CBF8206006680C7926EAB8
:1003C0000C0604F00304BC40344304604C68E400B1
:1003D00060D5334C266846F480462660246822F0B7
:1003E000030604F4804400942E4C3444A446D4F80C
:1003F00008489607370F0EFA07F6B4432A4EB04264
:1004000001D100261FE0294EB04201D101261AE099
:10041000274EB04202D1022615E03BE0254EB04205
:1004200001D103260FE0244EB04201D104260AE098
:10043000224EB04201D1052605E0214EB04201D145
:10044000062600E00726BE402643CCF808681D4E6D
:1004500034684F689C43FF0300D51C433460194E39
:10046000361D34684F689C43BF0300D51C4334607D
:10047000144E083634684F689C43FF0200D51C4375
:100480003460104E0C3634684F689C43BF0200D570
:100490001C433460521C102AFFF44AAFBDE8F88FA9
:1004A0004438024000300140000002400004024095
:1004B00000080240000C02400010024000140240FC
:1004C00000180240003C0140426931EA020200D1BA
:1004D0000904816170470AB1816170470904FBE733
:1004E00001488068704700000000002002488168D1
:1004F0000278114481607047000000200B4810B55D
:10050000016841F400710160016841F4806101609B
:10051000016841F480710160032000F06FF8002051
:1005200000F006F800F024F8002010BD003C024066
:1005300070B50D4D04464FF47A712878B1FBF0F098
:100540000A490968B1FBF0F000F0F2FA48B9102C42
:1005500007D200222146501E00F030F800206C60C7
:1005600070BD012070BD0000000000200C000020C4
:100570000A4808B5016841F480410160006800F450
:10058000804000900548001F016841F080510160E3
:10059000006800F08050009008BD00004438024020
:1005A000002809DB00F01F02012191404009800072
:1005B00000F1E020C0F8001170470000F0B40E4BCD
:1005C0001B680C46C3F30223C3F10705042D00D9B1
:1005D0000425191D072901D2002300E0DB1E012696
:1005E00006FA05F1491E214099409E40761E1640AC
:1005F0003143F0BC00F045BB0CED00E0064900F0D3
:10060000070208684FF6FF03184040EA0220034A39
:1006100010430860704700000CED00E00000FA0590
:100620002DE9F0470E46050065D0DFF81481D8F8B3
:100630000000F7B200F00F00B04207D288F8007057
:10064000D8F8000000F00F00B04254D128683D4CAB
:10065000810712D5400703D5206840F4E0502060A0
:100660002878000703D5206840F4604020602068A7
:10067000A96820F0F000084320602878C0072DD03A
:10068000304968680839012812D0022813D003289D
:1006900011D00968890700292DDA216821F00301AA
:1006A00001432160FFF71CFF814641F2883A0EE0CA
:1006B00009688903EFE709688901ECE7FFF710FF94
:1006C000A0EB0901514502D90320BDE8F08720685D
:1006D000696800F00C00B0EB810FEFD1D8F8001082
:1006E000404601F00F01B14207D90770006800F0E1
:1006F0000F00B04201D00120E7E72878400705D578
:100700002068E96820F4E05008432060287800075A
:1007100006D52068296920F4604040EAC1002060C5
:1007200000F018F82168084AC1F30311515CC84071
:100730000649086006480068FFF7FAFE0020C4E793
:10074000003C024008380240CE0C00080C0000209B
:1007500004000020224810B5006810F00C02214867
:1007600015D02149042A11D01D4C241F082A0FD06E
:100770000C2A0CD12268236802F03F025B0221D5CB
:100780002068C0F38810A0FB010120E0084610BDDE
:100790002268236802F03F025B0205D52068C0F39F
:1007A0008810A0FB010104E02168C1F38811A1FBBE
:1007B00000010023FFF722FD2168C1F30141491C1C
:1007C00049000AE02168C1F38811A1FB0001002360
:1007D000FFF714FD2168C1F30271B0FBF1F010BD09
:1007E000083802400024F40040787D012DE9F84FDC
:1007F0000546DFF828B30078ABF10407C007A7F17E
:10080000040451D0DBF800105846C1F381010129DE
:100810000FD00168C1F38101022902D13968490270
:1008200007D40068C0F38100032809D1386840026A
:1008300006D52068800337D56868002872D033E079
:100840006868B0F5803F10D0B0F5A02F206810D0B8
:1008500020F480302060206820F4802020606868C8
:10086000A8B1FFF73DFE06460DE0206840F4803059
:10087000F4E740F480202060F7E700BFFFF730FE88
:10088000801B642878D820688003F7D50CE0FFF738
:1008900027FE064605E000BFFFF722FE801B642806
:1008A000F0D820688003F7D42878DFF874928007A6
:1008B0004FF0000A46D5DBF80010584611F00C0F37
:1008C0000FD00168C1F38101022902D139684902C0
:1008D00007D50068C0F38100032809D138684002B9
:1008E00006D42068800715D5E86801281AD111E0E0
:1008F000E868C0B10120C9F80000FFF7F1FD064625
:1009000005E000BFFFF7ECFD801B0228BAD8206885
:100910008007F7D52068296920F0F80040EAC10077
:1009200020600FE0F7E0C9F800A0FFF7D9FD064608
:1009300005E000BFFFF7D4FD801B02281CD820680B
:100940008007F7D42878000727D5DFF8D0817548CD
:10095000696908F16C0881B101210160FFF7C0FDF0
:10096000064604E0FFF7BCFD801B022804D8D8F837
:1009700000008007F6D510E089E0C0F800A0FFF77E
:10098000AFFD064605E000BFFFF7AAFD801B022869
:100990007DD8D8F800008007F6D42878400769D5BC
:1009A0005E484FF0000838300068C0000BD45B4848
:1009B0003830016841F08051016000684FF0010853
:1009C00000F080500090584E3068C00511D4306857
:1009D00040F480703060FFF783FD009006E000BFB8
:1009E000FFF77EFD0099401A022850D83068C005F4
:1009F000F6D54A4EA868683601280FD00528306819
:100A000010D020F001003060306820F00400306029
:100A1000A868B8B1FFF764FD00900FE0306840F0BF
:100A20000100F4E740F004003060F7E7FFF758FDFD
:100A30000099411A41F28830814264D830688007B9
:100A4000F4D50EE0FFF74CFD009007E0FFF748FDFE
:100A50000099411A41F28830814254D830688007A9
:100A6000F4D4B8F1000F05D02C483830016821F0DB
:100A700080510160A869A8B3DBF80010C1F38101BF
:100A8000022948D00228C9F860A005D000E03AE069
:100A9000FFF726FD054639E0FFF722FD064604E094
:100AA000FFF71EFD801B02282DD820688001F7D497
:100AB000F5E907010843E9681C4A490802EB0141CE
:100AC000AA6841EA82110843297C40EA0160297D35
:100AD00040EA017038600120C9F86000FFF700FDAE
:100AE000054606E015E000BFFFF7FAFC401B0228B0
:100AF00009D820688001F7D50BE000BFFFF7F0FCB4
:100B0000401B022802D90320BDE8F88F206880012D
:100B1000F4D40020F8E70120F6E70000083802408E
:100B200000004742800E4742007000400000FFFF77
:100B300010B5401EB0F1807F01D3012010BD4FF0F1
:100B4000E02460610F21601700F09BF80020A06195
:100B500007202061002010BDFEE7000030B587B0FF
:100B600014216846FFF782FB1A480024016841F00F
:100B700004010160016801F004010591016841F080
:100B8000010101600068144D00F00100059022464B
:100B900020212846FFF79FFC4FF4005000900F489B
:100BA000CDE9010469460E48FFF7BAFB202000900A
:100BB0000120CDE90104694628460394FFF7B0FB04
:100BC000002211462820FFF7F9FC2820FFF7E8FC57
:100BD00007B030BD30380240000002400000111064
:100BE00000080240FEE7704770477047FFF77EBC81
:100BF00010B594B034216846FFF738FB14210DA8D6
:100C0000FFF734FB15480024016841F08051016072
:100C1000006800F0805012901148016821F44041B2
:100C200041F4804101600068069400F44040129055
:100C30000220009001200390102004906846FFF7E6
:100C4000D5FD0F20CDE90D040F94109400210DA8BF
:100C50001194FFF7E5FC14B010BD000040380240CD
:100C6000007000400548016841F4700101600349CB
:100C70004FF00060803908607047000088ED00E0A8
:100C8000FEE70907090E002804DB00F1E02080F8E8
:100C90000014704700F00F0000F1E02080F8141DF0
:100CA000704702E008C8121F08C1002AFAD1704735
:100CB0007047002001E001C1121F002AFBD17047DC
:100CC000FFF71CFCFFF794FFFFF748FFFEE700006B
:100CD00000000000000001020304060708090000EC
:100CE000000D00080000002010000000A20C000809
:100CF000100D00081000002000040000B20C0008D5
:100D00000100000010000000000000000024F400BA
:04000005080001C529
:00000001FF
