:020000040800F2
:10000000A84D0020990200085F0E00085B0E000852
:100010005D0E0008C9030008111000080000000070
:10002000000000000000000000000000D9010008EE
:10003000CB0300080000000035020008810E000814
:10004000B3020008B3020008B3020008B3020008BC
:10005000B3020008B3020008B3020008B3020008AC
:10006000B3020008B3020008B3020008B30200089C
:10007000B3020008B3020008B3020008B30200088C
:10008000B3020008B3020008B3020008B30200087C
:10009000B3020008B3020008B3020008B30200086C
:1000A000B30200083D0F0008B3020008B3020008C5
:1000B000B3020008B3020008B3020008B30200084C
:1000C000B3020008B3020008B3020008B30200083C
:1000D000B3020008B3020008B3020008B30200082C
:1000E000B3020008B3020008B3020008B30200081C
:1000F000B3020008B3020008B3020008B30200080C
:10010000B3020008B3020008B3020008B3020008FB
:10011000B3020008B3020008B3020008B3020008EB
:10012000B3020008B3020008B3020008B3020008DB
:10013000B30200080000000000000000B302000845
:10014000B3020008B3020008B3020008B3020008BB
:10015000B3020008B3020008B3020008B3020008AB
:10016000B3020008B3020008B3020008B30200089B
:10017000B3020008B3020008B30200080000000048
:1001800000000000B30200080000000000000000B2
:10019000B30200080000000000000000B3020008E5
:1001A000000000000000000000000000B302000892
:1001B000B3020008B3020008B3020008B30200084B
:1001C000B3020008DFF80CD000F0ECF8004800475C
:1001D00051100008A84D00202C4B19680868B0E8A1
:1001E000F04F80F30988BFF36F8F4FF0000080F36A
:1001F000118870470000000008480068006880F31C
:1002000008884FF0000080F3148862B661B6BFF32F
:100210004F8FBFF36F8F00DF00BF00BF08ED00E01E
:10022000DFF80C00016841F470010160704700BF05
:1002300088ED00E0EFF30980BFF36F8F134B1A686E
:100240001EF0100F08BF20ED108A20E9F04F10605B
:1002500009B44FF0500080F31188BFF34F8FBFF304
:100260006F8F01F00BFE4FF0000080F3118809BC86
:1002700019680868B0E8F04F1EF0100F08BFB0EC26
:10028000108A80F30988BFF36F8F70471800002031
:10029000EFF3058070470000064880470648004796
:1002A000FEE7FEE7FEE7FEE7FEE7FEE7FEE7FEE726
:1002B000FEE7FEE7210F0008C50100082DE9F05F09
:1002C0000546002092469B468846064681464024C5
:1002D0001BE0284641464746224600F053F8534665
:1002E0005A46C01A914110D311461846224600F0D2
:1002F0003AF82D1A67EB01084F46224601200021EB
:1003000000F031F817EB00094E41201EA4F1010462
:10031000DFDC484631462A464346BDE8F09F40EAC6
:1003200001039B0703D009E008C9121F08C0042A73
:10033000FAD203E011F8013B00F8013B521EF9D25A
:100340007047D2B201E000F8012B491EFBD2704782
:100350000022F6E710B513460A4604461946FFF791
:10036000F0FF204610BD202A04DB203A00FA02F1FB
:10037000002070479140C2F1200320FA03F3194393
:1003800090407047202A04DB203A21FA02F0002135
:10039000704721FA02F3D040C2F120029140084395
:1003A00019467047064C074D06E0E06840F001032F
:1003B00094E8070098471034AC42F6D3FFF706FFE5
:1003C0002029000840290008FEE770472DE9F84F72
:1003D00000224FF0010803254FF00F0E0B6808FABA
:1003E00002F42340A3426ED14E68012E05D0022EA6
:1003F00003D0112E01D0122E12D186684FEA420C82
:1004000005FA0CF7BE43CF6807FA0CF7374387604D
:100410004668A6430C79C4F3001494403443446006
:10042000C668570005FA07FC8C6826EA0C06BC4033
:100430003443C4604C68022C01D0122C13D1D40870
:1004400000EB8404A346D4F8209054074FEAD46A02
:100450000EFA0AF629EA06090E6906FA0AF646EACB
:100460000906CBF8206006680C7926EA0C0604F031
:100470000304BC40344304604C68E40060D5334C52
:10048000266846F480462660246822F0030604F4B9
:10049000804400942E4C3444A446D4F8084896076F
:1004A000370F0EFA07F6B4432A4EB04201D10026A8
:1004B0001FE0294EB04201D101261AE0274EB0427A
:1004C00002D1022615E03BE0254EB04201D10326C1
:1004D0000FE0244EB04201D104260AE0224EB04281
:1004E00001D1052605E0214EB04201D1062600E0EB
:1004F0000726BE402643CCF808681D4E34684F6876
:100500009C43FF0300D51C433460194E361D3468EC
:100510004F689C43BF0300D51C433460144E08361B
:1005200034684F689C43FF0200D51C433460104E72
:100530000C3634684F689C43BF0200D51C433460BE
:10054000521C102AFFF44AAFBDE8F88F443802402D
:100550000030014000000240000402400008024058
:10056000000C02400010024000140240001802403B
:10057000003C0140426931EA020200D10904816174
:1005800070470AB1816170470904FBE70148806840
:10059000704700000800002002488168027811447A
:1005A00081607047080000200B4810B5016841F4D5
:1005B00000710160016841F480610160016841F4EB
:1005C00080710160032000F08DF8002000F006F833
:1005D00000F03EF8002010BD003C024010B501467E
:1005E00088B00022192000F05DF8192000F04CF8C6
:1005F00013480024016841F001010160006805A969
:1006000000F001000690684600F018F900F036F995
:100610000C490D4AB0FBF1F10C48491E026040F252
:10062000E732C0E90324C0E9011400F027FB10B150
:10063000012008B010BD054800F03CFBF9E70000C0
:100640004438024040420F0000000140900000206A
:100650000C4882B0016841F480410160006800F4F8
:10066000804000900748001F016841F08051016000
:100670000068002200F0805000900F21901E02B010
:1006800000F010B844380240002809DB00F01F02D7
:10069000012191404009800000F1E020C0F80011E4
:1006A00070470000F0B40E4B1B680C46C3F30223E6
:1006B000C3F10705042D00D90425191D072901D20E
:1006C000002300E0DB1E012606FA05F1491E214049
:1006D00099409E40761E16403143F0BC00F099BC14
:1006E0000CED00E0064900F0070208684FF6FF0332
:1006F000184040EA0220034A104308607047000097
:100700000CED00E00000FA052DE9F0470E4605006B
:1007100065D0DFF81481D8F80000F7B200F00F00C0
:10072000B04207D288F80070D8F8000000F00F003F
:10073000B04254D128683D4C810712D5400703D5FB
:10074000206840F4E05020602878000703D5206836
:1007500040F4604020602068A96820F0F000084361
:1007600020602878C0072DD03049686808390128F2
:1007700012D0022813D0032811D009688907002954
:100780002DDA216821F0030101432160FFF7FEFE0D
:10079000814641F2883A0EE009688903EFE709686B
:1007A0008901ECE7FFF7F2FEA0EB0901514502D900
:1007B0000320BDE8F0872068696800F00C00B0EB0A
:1007C000810FEFD1D8F80010404601F00F01B1427F
:1007D00007D90770006800F00F00B04201D0012077
:1007E000E7E72878400705D52068E96820F4E0505D
:1007F000084320602878000706D52068296920F47E
:10080000604040EAC100206000F048F82168084AD2
:10081000C1F30311515CC8400649086006480068EE
:10082000FFF7DCFE0020C4E7003C0240083802402D
:10083000F0280008140000200C0000200F220260A5
:100840000C4A136803F003034360136803F0F003DA
:100850008360136803F4E053C36012684FF4E053FD
:1008600003EAD20202610448006800F00F00086049
:100870007047000008380240003C02400448054927
:1008800000680968044AC1F34231515CC8407047AE
:10089000140000200838024000290008224810B542
:1008A000006810F00C02214815D02149042A11D00B
:1008B0001D4C241F082A0FD00C2A0CD12268236853
:1008C00002F03F025B0221D52068C0F38810A0FB34
:1008D000010120E0084610BD2268236802F03F02B3
:1008E0005B0205D52068C0F38810A0FB010104E07D
:1008F0002168C1F38811A1FB00010023FFF7DEFC92
:100900002168C1F30141491C49000AE02168C1F393
:100910008811A1FB00010023FFF7D0FC2168C1F37F
:100920000271B0FBF1F010BD083802400024F40061
:1009300040787D012DE9F84F0546DFF828B30078AF
:10094000ABF10407C007A7F1040451D0DBF8001095
:100950005846C1F3810101290FD00168C1F381011B
:10096000022902D13968490207D40068C0F3810026
:10097000032809D13868400206D52068800337D59E
:100980006868002872D033E06868B0F5803F10D006
:10099000B0F5A02F206810D020F4803020602068AF
:1009A00020F4802020606868A8B1FFF7EFFD0646BC
:1009B0000DE0206840F48030F4E740F480202060AF
:1009C000F7E700BFFFF7E2FD801B642878D82068B6
:1009D0008003F7D50CE0FFF7D9FD064605E000BF20
:1009E000FFF7D4FD801B6428F0D820688003F7D47B
:1009F0002878DFF8749280074FF0000A46D5DBF8BC
:100A00000010584611F00C0F0FD00168C1F381019E
:100A1000022902D13968490207D50068C0F3810074
:100A2000032809D13868400206D42068800715D50C
:100A3000E86801281AD111E0E868C0B10120C9F8BE
:100A40000000FFF7A3FD064605E000BFFFF79EFD8F
:100A5000801B0228BAD820688007F7D5206829694A
:100A600020F0F80040EAC10020600FE0F7E0C9F88C
:100A700000A0FFF78BFD064605E000BFFFF786FDEF
:100A8000801B02281CD820688007F7D4287800072C
:100A900027D5DFF8D0817548696908F16C0881B104
:100AA00001210160FFF772FD064604E0FFF76EFDCD
:100AB000801B022804D8D8F800008007F6D510E083
:100AC00089E0C0F800A0FFF761FD064605E000BF21
:100AD000FFF75CFD801B02287DD8D8F80000800756
:100AE000F6D42878400769D55E484FF000083830C2
:100AF0000068C0000BD45B483830016841F0805179
:100B0000016000684FF0010800F080500090584EDE
:100B10003068C00511D4306840F480703060FFF751
:100B200035FD009006E000BFFFF730FD0099401A48
:100B3000022850D83068C005F6D54A4EA8686836F5
:100B400001280FD00528306810D020F00100306057
:100B5000306820F004003060A868B8B1FFF716FDD7
:100B600000900FE0306840F00100F4E740F004002E
:100B70003060F7E7FFF70AFD0099411A41F288302B
:100B8000814264D830688007F4D50EE0FFF7FEFCA0
:100B9000009007E0FFF7FAFC0099411A41F2883013
:100BA000814254D830688007F4D4B8F1000F05D0E2
:100BB0002C483830016821F080510160A869A8B341
:100BC000DBF80010C1F38101022948D00228C9F8DE
:100BD00060A005D000E03AE0FFF7D8FC054639E018
:100BE000FFF7D4FC064604E0FFF7D0FC801B022888
:100BF0002DD820688001F7D4F5E907010843E9689A
:100C00001C4A490802EB0141AA6841EA82110843E3
:100C1000297C40EA0160297D40EA017038600120AA
:100C2000C9F86000FFF7B2FC054606E015E000BF1A
:100C3000FFF7ACFC401B022809D820688001F7D5DB
:100C40000BE000BFFFF7A2FC401B022802D90320E3
:100C5000BDE8F88F20688001F4D40020F8E7012077
:100C6000F6E700000838024000004742800E474285
:100C7000007000400000FFFF7047704710B504008F
:100C800003D094F83D0010B107E0012010BD002012
:100C900084F83C00204600F00CF8022084F83D0067
:100CA000211D206800F050F9012084F83D0000204B
:100CB00010BD70470168CA6842F00102CA6000684E
:100CC000816801F00701062903D0016841F00101A4
:100CD000016000207047704770B5044600680169E4
:100CE0004FF00005C943890715D4C168C943890776
:100CF00011D4E91E016101202077206880698007F6
:100D0000204602D0FFF7E7FF04E000F098F8204605
:100D100000F096F8257720680169C943490717D480
:100D2000C168C943490713D46FF00401016102206F
:100D300020772068806910F4407F204602D0FFF7BA
:100D4000CAFF04E000F07BF8204600F079F8257730
:100D500020680169C943090716D4C168C943090756
:100D600012D46FF008010161042020772068C06967
:100D70008007204602D0FFF7AEFF04E000F05FF8E6
:100D8000204600F05DF8257720680169C943C9064F
:100D900017D4C168C943C90613D46FF010010161AB
:100DA000082020772068C06910F4407F204602D0D8
:100DB000FFF791FF04E000F042F8204600F040F811
:100DC000257720680169C943C90708D1C168C943AB
:100DD000C90704D1891E0161204600F033F820685C
:100DE0000169C943090609D4C168C943090605D484
:100DF0006FF0800101612046FFF73EFF2068016926
:100E0000C943490609D4C168C943490605D46FF0EE
:100E100040010161204600F01FF820680169C943C4
:100E200089060BD4C168C943890607D46FF0200135
:100E300001612046BDE87040FFF71FBF70BD7047DD
:100E40007047000000680349884201D1FFF7A4BB46
:100E500070470000000001407047FEE7FEE7704762
:100E6000012000F037F9FBE7044C642000F032F970
:100E700020212046FFF77EFBF7E70000000002403C
:100E800010B5502080F31188BFF34F8FBFF36F8FE1
:100E900001F068FB18B104494FF080500860002051
:100EA00080F3118810BD000004ED00E010B594B08F
:100EB00034216846FFF74CFA14210DA8FFF748FAD1
:100EC00015480024016841F080510160006800F07D
:100ED000805012901148016821F4404141F4804152
:100EE00001600068069400F44040129002200090D7
:100EF00001200390102004906846FFF71BFD0F208F
:100F0000CDE90D040F94109400210DA81194FFF762
:100F1000FBFB14B010BD00004038024000700040E0
:100F20000548016841F47001016003494FF0006019
:100F3000803908607047000088ED00E00148FFF745
:100F4000CBBE000090000020F0B50268254C264D75
:100F5000264E274F274B4FF0804CA04209D06045CA
:100F600007D0A84205D0B04203D0B84201D0984281
:100F700004D122F0700E4A6842EA0E02A0421BD051
:100F8000604519D0A84217D0B04215D0B84213D04E
:100F9000984211D0184DA8420ED0184DA8420BD03F
:100FA000174DA84208D0174DA84205D0164DA842AB
:100FB00002D0164DA84203D122F44075CA682A43D4
:100FC0004D6922F080022A4302608A68C2620A6880
:100FD0008262A04201D0984201D1096901630121D6
:100FE0004161F0BD000001400004004000080040E5
:100FF000000C00400004014000400140004401405A
:101000000048014000180040001C00400020004043
:10101000FEE70907090E002804DB00F1E02080F854
:101020000014704700F00F0000F1E02080F8141D5C
:10103000704702E008C8121F08C1002AFAD17047A1
:101040007047002001E001C1121F002AFBD1704748
:1010500086B0FFF7A9FAFFF729FF14216846FFF7CA
:1010600077F916480024016841F001010160006829
:10107000134D00F001000590224620212846FFF77D
:1010800080FA202000900120CDE90104694628461D
:101090000394FFF79BF900F037F80A4A00210A4849
:1010A00000F06AF8094C074A002120602432084801
:1010B00000F062F8606000F041F8FEE7303802406E
:1010C00000000240A8280008610E0008000000206F
:1010D000690E000810B5EFF3058179B9EFF31081BF
:1010E00011B9EFF3118119B106490968022905D038
:1010F000002408B100F00EFE204610BD6FF005047C
:10110000FAE7000068000020EFF3058068B9EFF30C
:1011100010820949086812B9EFF311820AB1022856
:1011200003D028B14FF0FF3070476FF005007047D3
:1011300001200860002070476800002010B5EFF320
:10114000058070B9EFF310820A49086812B9EFF30D
:1011500011820AB1022804D0012805D04FF0FF30D7
:1011600010BD6FF0050010BD0220086000F03AFECF
:10117000002010BD680000202DE9FF414FEA010367
:101180004FF00005EFF30581039599BBEFF3108154
:1011900011B9EFF3118119B11F490968022938D03B
:1011A00040B38026182100244AB3176807B13C4693
:1011B00097691FB139467F1E382F02D21779FF0772
:1011C00003D0002004B0BDE8F081576907B1BE0824
:1011D000D2F808C0BCF1000F0DD0D5685C2D18D333
:1011E00012693AB137B18DE806103246214601F056
:1011F0007AF903900DE0D7685FB912694AB903AA7A
:10120000CDE90012B2B2214601F040F9012800D028
:1012100003950398D6E70000680000202DE9F0410F
:10122000134C0F46054666692068001D00F042FC1D
:10123000681C07D137B12168BDE8F0410D48091D90
:1012400000F088BC20683544B5424560216805D26D
:10125000A068BDE8F041091D00F064BC6068091D8C
:1012600000F060FC206B854200D22563BDE8F08170
:1012700018000020C00500202DE9F041054600F0CF
:1012800075FC2D4C2069401C206120682B4F10B14B
:10129000E06930B32BE025602069012827D10026C2
:1012A00006EB860007EB800000F02EFC761C382E43
:1012B000F6D3234800F028FC2148143000F024FC29
:1012C0001F48283000F020FC1D483C3000F01CFC7A
:1012D0001B48503000F018FC194860601430A060C2
:1012E00005E02068E96AC06A884200D82560E06AA3
:1012F000401CE0626864E86AA169884200D9A06184
:1013000000EB800007EB8000291D00F023FC00F0BB
:101310004DFCE06900280CD02068E96AC06A884268
:1013200007D208494FF080500860BFF34F8FBFF3DA
:101330006F8FBDE8F0810000180000201001002030
:101340007005002004ED00E038B500F00FFC104CF3
:10135000A068C8B90F4800F0D7FB0E48143000F061
:10136000D3FB0C482060143060600A4B0020283307
:10137000009003F1500210210A2000F02BFEA06023
:1013800010B105A100F090FCBDE8384000F00EBCA3
:1013900054000020D4050020546D7251000000005C
:1013A00030B4026C0B46002A0BD0C1681144C160F6
:1013B0008468A14201D30168C16030BC1846FEF7C1
:1013C000AEBF30BC70472DE9F041856B174604462F
:1013D0000026026C82B1C7B1E068FEF7A0FFE168A9
:1013E000206C091AE1602268914202D2A168081AB1
:1013F000E060022F16D017E02068A8B9A06801F0BD
:1014000015F906460020A0600EE06068FEF787FF31
:10141000216C606808446060A168884204D3206839
:10142000606001E005B16D1E6D1CA5633046BDE82E
:10143000F08110B5044690F8590058B101280CD03D
:1014400002280FD0502080F31188BFF34F8FBFF3D5
:101450006F8FFEE7206B00F0BDFB2046BDE810401B
:1014600000F0B8BB10BD000010484FF470514207A7
:1014700006D0C01D0D4920F00700411AC1F570517A
:101480000B4A00230144C2E900030839103A21F055
:10149000070111604B600B600B1AC0E900139360E9
:1014A0004FF000405360D06070470000A40D002052
:1014B0007C000020144E154CA6F29C474FF080583B
:1014C000DFF84C9012E000BF00F050FBF068C568F8
:1014D000281D00F0EFFA2069401E2061E068401EE0
:1014E000E06000F063FB2846FFF7A3FFE0680028F8
:1014F000EAD138680128F9D9C9F80080BFF34F8FC5
:10150000BFF36F8FF2E70000AC0500201800002049
:1015100004ED00E070B51D46049C51B1C4F80020F4
:10152000C4E90F010121204600F088FD84F84C50E9
:1015300070BD2460F4E700002DE9F05F8846DDE926
:101540000B941546834691009A460A9EA522206B6D
:10155000FEF7F7FE6FF00301206B01EB85010844F5
:1015600020F00707780707D0502080F31188BFF3D9
:101570004F8FBFF36F8FFEE70025B8F1000F0FD03C
:101580005FF00000221818F8001082F8341018F8E4
:10159000001011B1401C1028F4D384F8435001E02E
:1015A00084F83450382E00D33726E662C4E9136538
:1015B000201D00F0B4FA04F1180000F0B0FA246124
:1015C000C6F138006462A061656584F858505246DF
:1015D0005946384600F058FA2060B9F1000F01D0A2
:1015E000C9F80040BDE8F09F30B5114900E0114650
:1015F0000A688242FBD34B685C18844203D140687E
:1016000018444860084643681C18944209D1084CA5
:10161000103C2468A24209D052681A4442600A6809
:1016200012680260814200D0086030BD0460F9E7B2
:101630007C00002070B5002441600B4D0061914298
:1016400006D8D11A8269914206D2011D686807E066
:101650009A4203D2994201D3012403E0011D286874
:1016600000F060FA204670BD5400002010B504461A
:1016700000F07CFAA06B28B15FF0000400F096FA4D
:10168000204610BD0124F9E730B589B03C4D6EE02D
:101690000498002806DADDE90601059A90470498C7
:1016A000002864DB069C606910B1201D00F002FA7E
:1016B00003A800F0D7F8024604980A2857D2DFE8BA
:1016C00000F00505052D334A05052D3394F8280053
:1016D00040F0010084F828000599A069059B0144A9
:1016E0002046FFF7A7FF68B3216A2046884794F891
:1016F000280040073BD5002000900598A1690023F1
:1017000042181946204601F09BF8D8B9502080F3C2
:101710001188BFF34F8FBFF36F8FFEE714F8280FC8
:1017200020F00100207022E094F8280040F0010031
:1017300084F828000598A06128B181181346204636
:10174000FFF778FF13E0502080F31188BFF34F8F2D
:10175000BFF36F8FFEE794F82800810703D420467B
:1017600000F038FA03E020F0010084F8280000229D
:1017700004A9A86800F0B4FD002889D109B030BDE3
:10178000540000202DE9FC410F46054600F06EFB99
:1017900001A800F067F80446019818B100F0BEFFF8
:1017A000BDE8FC81254EAFB170680068D0B300275A
:1017B000291B3A46B06800F08BFA00F0AFFF002812
:1017C000EED11F494FF080500860BFF34F8FBFF339
:1017D0006F8FE5E7A542EBD800F0A0FF3068274601
:1017E000C068C468201D00F065F994F8280041071E
:1017F00019D5A0692B4641193A462046FFF71AFF32
:10180000A8B100200346014600902A46204601F078
:1018100017F860B9502080F31188BFF34F8FBFF3E2
:101820006F8FFEE707E020F0010084F82800216AAE
:1018300020468847B4E70127BAE70000540000209B
:1018400004ED00E006484168096829B14168C968AB
:10185000C9684968016370474FF0FF31FAE700003B
:101860001800002070B5054600F076FE064E0446CE
:101870003069844203D200F009F8012000E0002022
:1018800028602046346170BD54000020F8B5194D21
:1018900020E0C068C4680668201D00F00BF9216ACA
:1018A0002046884794F82800400713D5A0693044A3
:1018B000B04206D924616060211D286800F032F929
:1018C00008E000200346014600903246204600F022
:1018D000B7FF38B1286801680029DAD16968C5E91D
:1018E0000010F8BD502080F31188BFF34F8FBFF375
:1018F0006F8FFEE75400002008484068401C4FF0FE
:10190000500080F3118804D0BFF34F8FBFF36F8F67
:10191000FEE7BFF34F8FBFF36F8FFEE78400002019
:10192000074C2068016841B1C0680021D0F8000070
:10193000FFF728FFFFF7A8FEF3E701210020F7E7F4
:10194000540000202DE9F041044600F00FF994F90D
:10195000455004F1240609E0606A48B1304600F0C1
:10196000A5FE08B100F004FA6D1E6DB2002DF3DC87
:101970004FF0FF3684F8456000F018F900F0F6F8F3
:1019800094F9445004F1100709E0206948B1384641
:1019900000F08CFE08B100F0EBF96D1E6DB2002D69
:1019A000F3DC84F84460BDE8F04100F0FFB80000CB
:1019B0002DE9F0410546002700F058FA314E306815
:1019C00008B9FFF751FDF06805424BD1C5B30835A2
:1019D00068070ED005F00700C0F10800054468074D
:1019E00007D0502080F31188BFF34F8FBFF36F8F64
:1019F000FEE72DB37068854234D822481030014686
:101A00000C6801E020460C466168A94202D22168B8
:101A10000029F7D131688C4224D007682168016021
:101A200060680837411B10290FD96019420708D098
:101A3000502080F31188BFF34F8FBFF36F8FFEE705
:101A400010E041606560FFF7CFFD61687068401A83
:101A50007060B268904200D2B060F068014300202C
:101A6000C4E9000100F05AFE780707D0502080F347
:101A70001188BFF34F8FBFF36F8FFEE73846BDE885
:101A8000F08100006C00002010B5031F4FF080743F
:101A90001C601B1F21F001011960191F044B0B6012
:101AA00014390A60091F6FF0020244380A6010BD41
:101AB000F9180008D0E9013201699A60D0E90123E0
:101AC0005A604A68824201D182684A6000220261FB
:101AD0000868401E0860086870470000034B0360F8
:101AE00003F15C000860802010607047EC06002065
:101AF000044B036003F15C0008604FF480701060D9
:101B0000704700004809002000F108014FF0FF3243
:101B1000C0E90112C160016100210160704700212C
:101B20000161704730B50B685A1C02D000F1080201
:101B300002E0026904E02246546825689D42FAD911
:101B400053684B6099608A60516008610168491C64
:101B5000016030BD42684A6093688B609368596049
:101B6000916008610168491C01607047502080F352
:101B70001188BFF34F8FBFF36F8F0A494868401C2D
:101B8000486001280CD10848006810F0FF0F07D00A
:101B9000502080F31188BFF34F8FBFF36F8FFEE7A4
:101BA000704700008400002004ED00E00849486808
:101BB00028B1401E486001D180F311887047502041
:101BC00080F31188BFF34F8FBFF36F8FFEE70000E4
:101BD0008400002070B5002827D0144DA0F108041F
:101BE0006168E868014207D1502080F31188BFF393
:101BF0004F8FBFF36F8FFEE722683AB1502080F31A
:101C00001188BFF34F8FBFF36F8FFEE78143616091
:101C100000F02CF960686968084468602046FFF7A6
:101C2000E3FCBDE8704000F079BD70BD6C000020A1
:101C30004FF0E02000210161816105494FF47A7283
:101C40000968B1FBF2F1491E41610721016170474A
:101C50001400002010B5FEF71BFB114910280ED30D
:101C600000F1E02090F8F0030A78904207D250206B
:101C700080F31188BFF34F8FBFF36F8FFEE70948E2
:101C80000068896800F4E060884207D9502080F33A
:101C90001188BFF34F8FBFF36F8FFEE710BD0000B9
:101CA000840000200CED00E010B5084B002200BFBE
:101CB00053F832401CB1521C082AF9D310BD43F826
:101CC000321003EBC201486010BD0000D0000020BC
:101CD00070B515460E460446FFF748FF94F94410C8
:101CE0000020491C01D184F8440094F94510491C96
:101CF00001D184F84500FFF759FFA06B28B92A46A7
:101D0000314604F1240000F051F82046BDE870404F
:101D1000FFF718BE10B5020014D00F48806B38B121
:101D2000502080F31188BFF34F8FBFF36F8FFEE712
:101D300000F09CF800211046FFF770FA00F0EEFC6E
:101D4000002807D105494FF080500860BFF34F8F3E
:101D5000BFF36F8F10BD00001800002004ED00E0FD
:101D600002498A6A02604969416070471800002090
:101D700001490120486270471800002010B50C4648
:101D800050B1094909681831FFF7CCFE2046BDE87B
:101D900010400121FFF742BA502080F31188BFF3B1
:101DA0004F8FBFF36F8FFEE71800002070B5144609
:101DB0000D4668B10A4909681831FFF7CBFE0CB12E
:101DC0004FF0FF3521462846BDE87040FFF726BAA0
:101DD000502080F31188BFF34F8FBFF36F8FFEE762
:101DE0001800002030B587B00024039405AA04A988
:101DF00003A80494FFF772FEDDE903010094CDE926
:101E00000110002315A11748059A00F06CFB164D30
:101E1000002868631FD000F0E3FC012809D0401CB3
:101E200019D1502080F31188BFF34F8FBFF36F8F0C
:101E3000FEE7502080F31188BFF34F8FBFF36F8F01
:101E40004FF0FF3028630120E8616C6107B0BDE806
:101E5000304000F045B807B030BD000049444C4563
:101E600000000000B5140008180000200248816B33
:101E7000491C81637047000018000020164810B507
:101E8000816B11B10121416210BD00214162816964
:101E9000124A01E0B9B1491E01EB810352F8233027
:101EA000002BF7D001EB810302EB830202F108045F
:101EB00053685B685360A34201D15B685360DA6882
:101EC0000260816110BD502080F31188BFF34F8FF5
:101ED000BFF36F8FFEE70000180000201001002004
:101EE0001CB537480168374A914207D1502080F32A
:101EF0001188BFF34F8FBFF36F8FFEE70068314942
:101F0000491E884207D1502080F31188BFF34F8FBC
:101F1000BFF36F8FFEE72C4908780190FF2008700F
:101F200008788DF800009DF800009DF8002000F072
:101F3000F000904207D0502080F31188BFF34F8FFC
:101F4000BFF36F8FFEE79DF80000204B00F05000BC
:101F500018700720986005E09DF8002052008DF869
:101F60000020401E9DF800201206F5D4986003283A
:101F700007D0502080F31188BFF34F8FBFF36F8FCE
:101F8000FEE74FF440709860019808700C482030CC
:101F9000016841F470010160016841F07041016025
:101FA000FFF746FE00205860FEF73AF9084801683E
:101FB00041F040410160FEF71FF900201CBD000008
:101FC00000ED00E071C20F4100E400E08400002059
:101FD00034EF00E038B5049D18B153B1CAB181B1F6
:101FE00020E0502080F31188BFF34F8FBFF36F8F35
:101FF000FEE7502080F31188BFF34F8FBFF36F8F40
:10200000FEE7502080F31188BFF34F8FBFF36F8F2F
:10201000FEE739B1502080F31188BFF34F8FBFF333
:102020006F8FFEE750241C46012384F846302B4670
:102030000094FFF76FFA204638BD000070B50D46DA
:10204000040025D0FFF792FDD4E90F20216802FBA0
:102050000011A1600021A163216861600A46D4E9F2
:102060000F01401E00FB0121E16021464FF0FF30CF
:1020700001F8440F487004F110008DB1FFF744FDE2
:1020800004F12400FFF740FDFFF790FD012070BD33
:10209000502080F31188BFF34F8FBFF36F8FFEE79F
:1020A00021690029F0D000F001FB0028ECD00449A0
:1020B0004FF080500860BFF34F8FBFF36F8FE3E79F
:1020C00004ED00E02DE9FF4782B01D468A464FF03F
:1020D0000008040003D0BAF1000F08D011E050202E
:1020E00080F31188BFF34F8FBFF36F8FFEE7206C33
:1020F00038B1502080F31188BFF34F8FBFF36F8F3B
:10210000FEE7022D0AD1E06B012807D0502080F3B2
:102110001188BFF34F8FBFF36F8FFEE700F00EFA09
:102120003F4F4FF000094FF0805648B9049838B13E
:10213000502080F31188BFF34F8FBFF36F8FFEE7FE
:10214000FFF714FDA06BE16B884207D3022D05D089
:102150000498D0B1B8F1000F1AD01EE02A465146BB
:102160002046FFF730F9616A19B104F1240000F04C
:102170009DFA20B13E60BFF34F8FBFF36F8FFFF723
:1021800015FD012006B0BDE8F087FFF70FFD22E046
:102190006846FFF7E5FD4FF00108FFF707FDFFF781
:1021A00065FEFFF7E3FC94F94400401C01D184F87C
:1021B000449094F94500401C01D184F84590FFF704
:1021C000F5FC04A9684600F027F930B12046FFF776
:1021D000B9FB00F0A3FA0020D4E7FFF7C7FCA06B1F
:1021E000E16B884213D1FFF7E1FC04F11000049980
:1021F000FFF7C4FD2046FFF7A5FB00F08FFA00288B
:102200009ED13E60BFF34F8FBFF36F8F98E7FFF70C
:10221000CDFC2046FFF796FB00F080FA90E7000027
:1022200004ED00E02DE9F0471F4690468946040082
:1022300003D0B9F1000F08D011E0502080F31188CD
:10224000BFF34F8FBFF36F8FFEE7206C38B1502084
:1022500080F31188BFF34F8FBFF36F8FFEE7022F1C
:102260000AD1E06B012807D0502080F31188BFF31A
:102270004F8FBFF36F8FFEE7FFF7ECFC5020EFF3BB
:10228000118680F31188BFF34F8FBFF36F8FA06B60
:10229000E16B884206D3022F04D0002086F3118818
:1022A000BDE8F08794F945503A4649462046FFF785
:1022B0008AF8681C04D06D1C84F845500120EDE7B5
:1022C000606A0028FAD004F1240000F0EFF9002839
:1022D000F4D0B8F1000FF1D00121C8F80010EDE7FB
:1022E0002DE9F747002683B08A46040003D0BAF1EF
:1022F000000F08D011E0502080F31188BFF34F8FFA
:10230000BFF36F8FFEE7206C38B1502080F3118847
:10231000BFF34F8FBFF36F8FFEE700F00FF9DFF8C9
:10232000F4804FF000094FF0805748B9059838B154
:10233000502080F31188BFF34F8FBFF36F8FFEE7FC
:10234000FFF714FCA56BC5B151462046FFF728F8EE
:102350006D1EA563206950B104F1100000F0A6F9CC
:1023600028B1C8F80070BFF34F8FBFF36F8FFFF72E
:102370001DFC012006B0BDE8F087059808B11EB12C
:1023800006E0FFF713FC27E06846FFF7E9FC0126AB
:10239000FFF70CFCFFF76AFDFFF7E8FB94F9440038
:1023A000401C01D184F8449094F94500401C01D1AF
:1023B00084F84590FFF7FAFB05A9684600F02CF871
:1023C000002820460AD0FFF7BDFA00F0A7F9204602
:1023D000FFF74CF90028B3D00020CBE7FFF746F910
:1023E00090B104F124000599FFF7C8FC2046FFF7DF
:1023F000A9FA00F093F90028A2D1C8F80070BFF341
:102400004F8FBFF36F8F9BE72046FFF79BFA00F0DB
:1024100085F995E704ED00E02DE9F0410C46050053
:1024200011D0C4B1FFF7A2FB174B5A696E68206840
:10243000911B471C17D02F689B6A9F4219D0964268
:1024400017D8012410E0502080F31188BFF34F8F7C
:10245000BFF36F8FFEE7502080F31188BFF34F8FDB
:10246000BFF36F8FFEE70024FFF7A0FB2046BDE817
:10247000F081884205D9401A20602846FFF770FC99
:10248000F1E700202060DCE7180000202DE9FF5F65
:102490008346DDE90E87994616468A469000FFF787
:1024A00087FA05001CD05C20FFF782FA040014D0E4
:1024B0000020256384F85900CDE90240CDE900876A
:1024C0004B46324651465846FFF736F82046FEF74F
:1024D000D3FE012004B0BDE8F09F2846FFF77AFB49
:1024E0004FF0FF30F6E7F0B585B0DDE90B640A9DEB
:1024F000A6B1DCB15C2700972663022684F85960F8
:10250000002604AFCDE90246CDE90057FFF714F8E5
:102510002046FEF7B1FE049805B0F0BD502080F3D0
:102520001188BFF34F8FBFF36F8FFEE7502080F30A
:102530001188BFF34F8FBFF36F8FFEE70548C16966
:1025400019B1806B18B1002070470120704702203C
:1025500070470000180000200148406970470000E3
:10256000180000202DE9F0412E4C0027A06B40B14F
:10257000206A401C2062606A00B101273846BDE82D
:10258000F0816669761C666113D16068006838B1B5
:10259000502080F31188BFF34F8FBFF36F8FFEE79A
:1025A0006068A1686160A060A06A401CA062FFF73B
:1025B00049F9206BDFF87080864209D360680068B3
:1025C00080B16068C068C568686886420DD22063C3
:1025D0002068C06A00EB800158F821000128CAD9A0
:1025E0000127C8E74FF0FF30F1E7281DFFF762FA37
:1025F000A86A18B105F11800FFF75CFAE86AA1694A
:10260000884200D9A06100EB800108EB8100291D00
:10261000FFF7A0FAE86A2168C96A8842CED3012789
:10262000CCE70000180000201001002070B5040065
:102630004FF0000133D01B4D2868844207D0502052
:1026400080F31188BFF34F8FBFF36F8FFEE7206DCC
:1026500038B1401E2065E36CE26A9A421FD040B157
:102660001DE0502080F31188BFF34F8FBFF36F8FB1
:10267000FEE7201DFFF71EFAE06CE062C0F13800B3
:10268000A061E06AA969884200D9A861064900EB07
:10269000800001EB8000211DFFF75CFA0121084654
:1026A00070BD0000180000201001002070B5C06847
:1026B000C46854B104F118000646FFF7FBF9144D45
:1026C000A86B50B13146134815E0502080F31188B3
:1026D000BFF34F8FBFF36F8FFEE7201DFFF7EAF9BF
:1026E000E06AA969884200D9A8610B4900EB800023
:1026F00001EB8000211DFFF72DFAE06A2968C96A05
:10270000884202D90120686270BD002070BD0000BF
:102710001800002098050020100100202DE9F04746
:102720002C4D00242746A86B38B1FFF71FFAA86B81
:10273000401EA863A86B40B146E0502080F311888A
:10274000BFF34F8FBFF36F8FFEE72969224E012041
:10275000D1B3A6F5916980463068E0B1F068C468ED
:1027600004F11800FFF7A6F9201DFFF7A3F9E06AAE
:10277000A969884200D9A86100EB800109EB8100BA
:10278000211DFFF7E7F9E06A2968C96A8842E3D3A7
:10279000C5F82480E0E70CB1FFF754F82C6A4CB17F
:1027A0004FEA0806FFF7DEFE00B16E62641EF9D143
:1027B00000202862686A38B1084901273807086094
:1027C000BFF34F8FBFF36F8FFFF7F0F93846BDE8C7
:1027D000F0870000180000209805002004ED00E0BC
:1027E00010B586B0FEF7B0FD114CA068B8B100205E
:1027F0000390049005AA04A903A8FFF779F9DDE97D
:10280000032102208DE8070000230AA10B48059A46
:10281000FFF769FEE06010B106B0012010BD502046
:1028200080F31188BFF34F8FBFF36F8FFEE7000077
:1028300054000020546D7220537663002119000863
:102840002DE9FF411E46134602000A9D4FF000008D
:1028500016D0144CA768002F0FD0CDE900130292B8
:10286000062917DAFFF76AFE02284FF000030FD09F
:1028700000226946A068FFF725FC04B0BDE8F0819E
:10288000502080F31188BFF34F8FBFF36F8FFEE7A7
:102890002A46EEE70023324669463846FFF7C2FC77
:1028A000EBE700005400002014290008000000009D
:1028B0000000000000000000000000000002000016
:1028C00018000000000000000000000008290008B7
:1028D00000000000000000000000000000000000F8
:1028E00000020000080000000000000000000000DE
:1028F00000000000000000000102030406070809B0
:1029000000000000010203046D795461736B4C44B4
:102910000000000064656661756C745461736B003F
:10292000402900080000002090000000321000083C
:10293000D029000890000020184D00004210000827
:102940000000000000000000010000001000000076
:10295000000000000024F40000000000000000005F
:102960000000000000000000000000000000000067
:102970000000000000000000000000000000000057
:102980000000000000000000000000000000000047
:102990000000000000000000000000000000000037
:1029A0000000000000000000000000000000000027
:1029B0000000000000000000000000000000000017
:1029C0000000000000000000AAAAAAAA000000005F
:04000005080001C529
:00000001FF
